{
  "_format": "hh-sol-artifact-1",
  "contractName": "NFTMarket",
  "sourceName": "contracts/NftMarket.sol",
  "abi": [
    {
      "inputs": [],
      "stateMutability": "nonpayable",
      "type": "constructor"
    },
    {
      "inputs": [
        {
          "internalType": "string",
          "name": "msg",
          "type": "string"
        }
      ],
      "name": "NoAssetFound",
      "type": "error"
    },
    {
      "anonymous": false,
      "inputs": [
        {
          "indexed": true,
          "internalType": "address",
          "name": "owner",
          "type": "address"
        },
        {
          "indexed": true,
          "internalType": "address",
          "name": "approved",
          "type": "address"
        },
        {
          "indexed": true,
          "internalType": "uint256",
          "name": "tokenId",
          "type": "uint256"
        }
      ],
      "name": "Approval",
      "type": "event"
    },
    {
      "anonymous": false,
      "inputs": [
        {
          "indexed": true,
          "internalType": "address",
          "name": "owner",
          "type": "address"
        },
        {
          "indexed": true,
          "internalType": "address",
          "name": "operator",
          "type": "address"
        },
        {
          "indexed": false,
          "internalType": "bool",
          "name": "approved",
          "type": "bool"
        }
      ],
      "name": "ApprovalForAll",
      "type": "event"
    },
    {
      "anonymous": false,
      "inputs": [
        {
          "indexed": true,
          "internalType": "address",
          "name": "from",
          "type": "address"
        },
        {
          "indexed": true,
          "internalType": "address",
          "name": "to",
          "type": "address"
        },
        {
          "indexed": true,
          "internalType": "uint256",
          "name": "tokenId",
          "type": "uint256"
        }
      ],
      "name": "Transfer",
      "type": "event"
    },
    {
      "inputs": [
        {
          "internalType": "uint256",
          "name": "",
          "type": "uint256"
        }
      ],
      "name": "CreateAsset",
      "outputs": [
        {
          "internalType": "uint256",
          "name": "index",
          "type": "uint256"
        },
        {
          "internalType": "address",
          "name": "nftAddress",
          "type": "address"
        },
        {
          "internalType": "address",
          "name": "owner",
          "type": "address"
        },
        {
          "internalType": "uint256",
          "name": "_tokenId",
          "type": "uint256"
        },
        {
          "internalType": "bool",
          "name": "sold",
          "type": "bool"
        },
        {
          "internalType": "uint256",
          "name": "price",
          "type": "uint256"
        }
      ],
      "stateMutability": "view",
      "type": "function"
    },
    {
      "inputs": [
        {
          "internalType": "address",
          "name": "to",
          "type": "address"
        },
        {
          "internalType": "uint256",
          "name": "tokenId",
          "type": "uint256"
        }
      ],
      "name": "approve",
      "outputs": [],
      "stateMutability": "nonpayable",
      "type": "function"
    },
    {
      "inputs": [
        {
          "internalType": "address",
          "name": "owner",
          "type": "address"
        }
      ],
      "name": "balanceOf",
      "outputs": [
        {
          "internalType": "uint256",
          "name": "",
          "type": "uint256"
        }
      ],
      "stateMutability": "view",
      "type": "function"
    },
    {
      "inputs": [
        {
          "internalType": "uint256",
          "name": "index",
          "type": "uint256"
        }
      ],
      "name": "buyNftAsset",
      "outputs": [],
      "stateMutability": "payable",
      "type": "function"
    },
    {
      "inputs": [
        {
          "internalType": "uint256",
          "name": "tokenId",
          "type": "uint256"
        }
      ],
      "name": "getApproved",
      "outputs": [
        {
          "internalType": "address",
          "name": "",
          "type": "address"
        }
      ],
      "stateMutability": "view",
      "type": "function"
    },
    {
      "inputs": [
        {
          "internalType": "address",
          "name": "owner",
          "type": "address"
        },
        {
          "internalType": "address",
          "name": "operator",
          "type": "address"
        }
      ],
      "name": "isApprovedForAll",
      "outputs": [
        {
          "internalType": "bool",
          "name": "",
          "type": "bool"
        }
      ],
      "stateMutability": "view",
      "type": "function"
    },
    {
      "inputs": [],
      "name": "listAllNft",
      "outputs": [
        {
          "components": [
            {
              "internalType": "uint256",
              "name": "index",
              "type": "uint256"
            },
            {
              "internalType": "address",
              "name": "nftAddress",
              "type": "address"
            },
            {
              "internalType": "address",
              "name": "owner",
              "type": "address"
            },
            {
              "internalType": "uint256",
              "name": "_tokenId",
              "type": "uint256"
            },
            {
              "internalType": "bool",
              "name": "sold",
              "type": "bool"
            },
            {
              "internalType": "uint256",
              "name": "price",
              "type": "uint256"
            }
          ],
          "internalType": "struct NFTMarket.NftItem[]",
          "name": "",
          "type": "tuple[]"
        }
      ],
      "stateMutability": "view",
      "type": "function"
    },
    {
      "inputs": [],
      "name": "listMyAssets",
      "outputs": [
        {
          "components": [
            {
              "internalType": "uint256",
              "name": "index",
              "type": "uint256"
            },
            {
              "internalType": "address",
              "name": "nftAddress",
              "type": "address"
            },
            {
              "internalType": "address",
              "name": "owner",
              "type": "address"
            },
            {
              "internalType": "uint256",
              "name": "_tokenId",
              "type": "uint256"
            },
            {
              "internalType": "bool",
              "name": "sold",
              "type": "bool"
            },
            {
              "internalType": "uint256",
              "name": "price",
              "type": "uint256"
            }
          ],
          "internalType": "struct NFTMarket.NftItem[]",
          "name": "",
          "type": "tuple[]"
        }
      ],
      "stateMutability": "nonpayable",
      "type": "function"
    },
    {
      "inputs": [],
      "name": "name",
      "outputs": [
        {
          "internalType": "string",
          "name": "",
          "type": "string"
        }
      ],
      "stateMutability": "view",
      "type": "function"
    },
    {
      "inputs": [
        {
          "internalType": "uint256",
          "name": "tokenId",
          "type": "uint256"
        }
      ],
      "name": "ownerOf",
      "outputs": [
        {
          "internalType": "address",
          "name": "",
          "type": "address"
        }
      ],
      "stateMutability": "view",
      "type": "function"
    },
    {
      "inputs": [
        {
          "internalType": "address",
          "name": "from",
          "type": "address"
        },
        {
          "internalType": "address",
          "name": "to",
          "type": "address"
        },
        {
          "internalType": "uint256",
          "name": "tokenId",
          "type": "uint256"
        }
      ],
      "name": "safeTransferFrom",
      "outputs": [],
      "stateMutability": "nonpayable",
      "type": "function"
    },
    {
      "inputs": [
        {
          "internalType": "address",
          "name": "from",
          "type": "address"
        },
        {
          "internalType": "address",
          "name": "to",
          "type": "address"
        },
        {
          "internalType": "uint256",
          "name": "tokenId",
          "type": "uint256"
        },
        {
          "internalType": "bytes",
          "name": "_data",
          "type": "bytes"
        }
      ],
      "name": "safeTransferFrom",
      "outputs": [],
      "stateMutability": "nonpayable",
      "type": "function"
    },
    {
      "inputs": [
        {
          "internalType": "address",
          "name": "nftAddress",
          "type": "address"
        },
        {
          "internalType": "uint256",
          "name": "_tokenId",
          "type": "uint256"
        },
        {
          "internalType": "uint256",
          "name": "nfAmount",
          "type": "uint256"
        }
      ],
      "name": "sellNftAsset",
      "outputs": [],
      "stateMutability": "payable",
      "type": "function"
    },
    {
      "inputs": [
        {
          "internalType": "address",
          "name": "operator",
          "type": "address"
        },
        {
          "internalType": "bool",
          "name": "approved",
          "type": "bool"
        }
      ],
      "name": "setApprovalForAll",
      "outputs": [],
      "stateMutability": "nonpayable",
      "type": "function"
    },
    {
      "inputs": [
        {
          "internalType": "bytes4",
          "name": "interfaceId",
          "type": "bytes4"
        }
      ],
      "name": "supportsInterface",
      "outputs": [
        {
          "internalType": "bool",
          "name": "",
          "type": "bool"
        }
      ],
      "stateMutability": "view",
      "type": "function"
    },
    {
      "inputs": [],
      "name": "symbol",
      "outputs": [
        {
          "internalType": "string",
          "name": "",
          "type": "string"
        }
      ],
      "stateMutability": "view",
      "type": "function"
    },
    {
      "inputs": [
        {
          "internalType": "uint256",
          "name": "tokenId",
          "type": "uint256"
        }
      ],
      "name": "tokenURI",
      "outputs": [
        {
          "internalType": "string",
          "name": "",
          "type": "string"
        }
      ],
      "stateMutability": "view",
      "type": "function"
    },
    {
      "inputs": [
        {
          "internalType": "address",
          "name": "from",
          "type": "address"
        },
        {
          "internalType": "address",
          "name": "to",
          "type": "address"
        },
        {
          "internalType": "uint256",
          "name": "tokenId",
          "type": "uint256"
        }
      ],
      "name": "transferFrom",
      "outputs": [],
      "stateMutability": "nonpayable",
      "type": "function"
    }
  ],
  "bytecode": "0x6080604052670de0b6b3a7640000600a553480156200001d57600080fd5b506040518060400160405280600c81526020017f4d794e46542d546f6b656e7300000000000000000000000000000000000000008152506040518060400160405280600381526020017f554d5400000000000000000000000000000000000000000000000000000000008152508160009080519060200190620000a29291906200010d565b508060019080519060200190620000bb9291906200010d565b505050600160078190555033600960006101000a81548173ffffffffffffffffffffffffffffffffffffffff021916908373ffffffffffffffffffffffffffffffffffffffff16021790555062000222565b8280546200011b90620001bd565b90600052602060002090601f0160209004810192826200013f57600085556200018b565b82601f106200015a57805160ff19168380011785556200018b565b828001600101855582156200018b579182015b828111156200018a5782518255916020019190600101906200016d565b5b5090506200019a91906200019e565b5090565b5b80821115620001b95760008160009055506001016200019f565b5090565b60006002820490506001821680620001d657607f821691505b60208210811415620001ed57620001ec620001f3565b5b50919050565b7f4e487b7100000000000000000000000000000000000000000000000000000000600052602260045260246000fd5b61384080620002326000396000f3fe6080604052600436106101095760003560e01c806370a0823111610095578063b2b06aa811610064578063b2b06aa81461036e578063b88d4fde146103b0578063c87b56dd146103d9578063d4dbef2414610416578063e985e9c51461043257610109565b806370a08231146102b2578063885b6c7d146102ef57806395d89b411461031a578063a22cb4651461034557610109565b80631a3ee588116100dc5780631a3ee588146101dc57806323b872dd146101f857806337aa72c81461022157806342842e0e1461024c5780636352211e1461027557610109565b806301ffc9a71461010e57806306fdde031461014b578063081812fc14610176578063095ea7b3146101b3575b600080fd5b34801561011a57600080fd5b50610135600480360381019061013091906125c9565b61046f565b6040516101429190612baf565b60405180910390f35b34801561015757600080fd5b50610160610551565b60405161016d9190612bca565b60405180910390f35b34801561018257600080fd5b5061019d6004803603810190610198919061261b565b6105e3565b6040516101aa9190612aef565b60405180910390f35b3480156101bf57600080fd5b506101da60048036038101906101d5919061253e565b610668565b005b6101f660048036038101906101f1919061261b565b610780565b005b34801561020457600080fd5b5061021f600480360381019061021a9190612438565b6109ba565b005b34801561022d57600080fd5b50610236610a1a565b6040516102439190612b8d565b60405180910390f35b34801561025857600080fd5b50610273600480360381019061026e9190612438565b610c55565b005b34801561028157600080fd5b5061029c6004803603810190610297919061261b565b610c75565b6040516102a99190612aef565b60405180910390f35b3480156102be57600080fd5b506102d960048036038101906102d491906123d3565b610d27565b6040516102e69190612e4c565b60405180910390f35b3480156102fb57600080fd5b50610304610ddf565b6040516103119190612b8d565b60405180910390f35b34801561032657600080fd5b5061032f611147565b60405161033c9190612bca565b60405180910390f35b34801561035157600080fd5b5061036c60048036038101906103679190612502565b6111d9565b005b34801561037a57600080fd5b506103956004803603810190610390919061261b565b6111ef565b6040516103a796959493929190612e67565b60405180910390f35b3480156103bc57600080fd5b506103d760048036038101906103d29190612487565b611278565b005b3480156103e557600080fd5b5061040060048036038101906103fb919061261b565b6112da565b60405161040d9190612bca565b60405180910390f35b610430600480360381019061042b919061257a565b61142c565b005b34801561043e57600080fd5b50610459600480360381019061045491906123fc565b611732565b6040516104669190612baf565b60405180910390f35b60007f80ac58cd000000000000000000000000000000000000000000000000000000007bffffffffffffffffffffffffffffffffffffffffffffffffffffffff1916827bffffffffffffffffffffffffffffffffffffffffffffffffffffffff1916148061053a57507f5b5e139f000000000000000000000000000000000000000000000000000000007bffffffffffffffffffffffffffffffffffffffffffffffffffffffff1916827bffffffffffffffffffffffffffffffffffffffffffffffffffffffff1916145b8061054a5750610549826117c6565b5b9050919050565b6060600080546105609061310b565b80601f016020809104026020016040519081016040528092919081815260200182805461058c9061310b565b80156105d95780601f106105ae576101008083540402835291602001916105d9565b820191906000526020600020905b8154815290600101906020018083116105bc57829003601f168201915b5050505050905090565b60006105ee82611830565b61062d576040517f08c379a000000000000000000000000000000000000000000000000000000000815260040161062490612d0c565b60405180910390fd5b6004600083815260200190815260200160002060009054906101000a900473ffffffffffffffffffffffffffffffffffffffff169050919050565b600061067382610c75565b90508073ffffffffffffffffffffffffffffffffffffffff168373ffffffffffffffffffffffffffffffffffffffff1614156106e4576040517f08c379a00000000000000000000000000000000000000000000000000000000081526004016106db90612d8c565b60405180910390fd5b8073ffffffffffffffffffffffffffffffffffffffff1661070361189c565b73ffffffffffffffffffffffffffffffffffffffff16148061073257506107318161072c61189c565b611732565b5b610771576040517f08c379a000000000000000000000000000000000000000000000000000000000815260040161076890612c8c565b60405180910390fd5b61077b83836118a4565b505050565b600260075414156107c6576040517f08c379a00000000000000000000000000000000000000000000000000000000081526004016107bd90612e2c565b60405180910390fd5b60026007819055506000600d60008381526020019081526020016000206005015490506000600d6000848152602001908152602001600020600301549050813414610846576040517f08c379a000000000000000000000000000000000000000000000000000000000815260040161083d90612d2c565b60405180910390fd5b600d600084815260200190815260200160002060020160009054906101000a900473ffffffffffffffffffffffffffffffffffffffff1673ffffffffffffffffffffffffffffffffffffffff166108fc349081150290604051600060405180830381858888f193505050501580156108c2573d6000803e3d6000fd5b506108ce303383610c55565b33600d600085815260200190815260200160002060020160006101000a81548173ffffffffffffffffffffffffffffffffffffffff021916908373ffffffffffffffffffffffffffffffffffffffff1602179055506001600d600085815260200190815260200160002060040160006101000a81548160ff021916908315150217905550803373ffffffffffffffffffffffffffffffffffffffff163073ffffffffffffffffffffffffffffffffffffffff167fddf252ad1be2c89b69c2b068fc378daa952ba7f163c4a11628f55a4df523b3ef60405160405180910390a45050600160078190555050565b6109cb6109c561189c565b8261195d565b610a0a576040517f08c379a0000000000000000000000000000000000000000000000000000000008152600401610a0190612dcc565b60405180910390fd5b610a15838383611a3b565b505050565b60606000600b541115610c17576000600b5467ffffffffffffffff811115610a6b577f4e487b7100000000000000000000000000000000000000000000000000000000600052604160045260246000fd5b604051908082528060200260200182016040528015610aa457816020015b610a9161229e565b815260200190600190039081610a895790505b50905060005b600b548111610c0d57600d60008281526020019081526020016000206040518060c0016040529081600082015481526020016001820160009054906101000a900473ffffffffffffffffffffffffffffffffffffffff1673ffffffffffffffffffffffffffffffffffffffff1673ffffffffffffffffffffffffffffffffffffffff1681526020016002820160009054906101000a900473ffffffffffffffffffffffffffffffffffffffff1673ffffffffffffffffffffffffffffffffffffffff1673ffffffffffffffffffffffffffffffffffffffff168152602001600382015481526020016004820160009054906101000a900460ff16151515158152602001600582015481525050828281518110610bef577f4e487b7100000000000000000000000000000000000000000000000000000000600052603260045260246000fd5b60200260200101819052508080610c059061316e565b915050610aaa565b5080915050610c52565b6040517f7e47d87c000000000000000000000000000000000000000000000000000000008152600401610c4990612c0c565b60405180910390fd5b90565b610c7083838360405180602001604052806000815250611278565b505050565b6000806002600084815260200190815260200160002060009054906101000a900473ffffffffffffffffffffffffffffffffffffffff169050600073ffffffffffffffffffffffffffffffffffffffff168173ffffffffffffffffffffffffffffffffffffffff161415610d1e576040517f08c379a0000000000000000000000000000000000000000000000000000000008152600401610d1590612ccc565b60405180910390fd5b80915050919050565b60008073ffffffffffffffffffffffffffffffffffffffff168273ffffffffffffffffffffffffffffffffffffffff161415610d98576040517f08c379a0000000000000000000000000000000000000000000000000000000008152600401610d8f90612cac565b60405180910390fd5b600360008373ffffffffffffffffffffffffffffffffffffffff1673ffffffffffffffffffffffffffffffffffffffff168152602001908152602001600020549050919050565b606060005b600b54811015611004573373ffffffffffffffffffffffffffffffffffffffff16600d600083815260200190815260200160002060020160009054906101000a900473ffffffffffffffffffffffffffffffffffffffff1673ffffffffffffffffffffffffffffffffffffffff161415610fb657600c600d60008381526020019081526020016000209080600181540180825580915050600190039060005260206000209060060201600090919091909150600082015481600001556001820160009054906101000a900473ffffffffffffffffffffffffffffffffffffffff168160010160006101000a81548173ffffffffffffffffffffffffffffffffffffffff021916908373ffffffffffffffffffffffffffffffffffffffff1602179055506002820160009054906101000a900473ffffffffffffffffffffffffffffffffffffffff168160020160006101000a81548173ffffffffffffffffffffffffffffffffffffffff021916908373ffffffffffffffffffffffffffffffffffffffff160217905550600382015481600301556004820160009054906101000a900460ff168160040160006101000a81548160ff021916908315150217905550600582015481600501555050610ff1565b6040517f7e47d87c000000000000000000000000000000000000000000000000000000008152600401610fe890612e0c565b60405180910390fd5b8080610ffc9061316e565b915050610de4565b50600c805480602002602001604051908101604052809291908181526020016000905b8282101561113e57838290600052602060002090600602016040518060c0016040529081600082015481526020016001820160009054906101000a900473ffffffffffffffffffffffffffffffffffffffff1673ffffffffffffffffffffffffffffffffffffffff1673ffffffffffffffffffffffffffffffffffffffff1681526020016002820160009054906101000a900473ffffffffffffffffffffffffffffffffffffffff1673ffffffffffffffffffffffffffffffffffffffff1673ffffffffffffffffffffffffffffffffffffffff168152602001600382015481526020016004820160009054906101000a900460ff1615151515815260200160058201548152505081526020019060010190611027565b50505050905090565b6060600180546111569061310b565b80601f01602080910402602001604051908101604052809291908181526020018280546111829061310b565b80156111cf5780601f106111a4576101008083540402835291602001916111cf565b820191906000526020600020905b8154815290600101906020018083116111b257829003601f168201915b5050505050905090565b6111eb6111e461189c565b8383611c97565b5050565b600d6020528060005260406000206000915090508060000154908060010160009054906101000a900473ffffffffffffffffffffffffffffffffffffffff16908060020160009054906101000a900473ffffffffffffffffffffffffffffffffffffffff16908060030154908060040160009054906101000a900460ff16908060050154905086565b61128961128361189c565b8361195d565b6112c8576040517f08c379a00000000000000000000000000000000000000000000000000000000081526004016112bf90612dcc565b60405180910390fd5b6112d484848484611e04565b50505050565b60606112e582611830565b611324576040517f08c379a000000000000000000000000000000000000000000000000000000000815260040161131b90612cec565b60405180910390fd5b60006006600084815260200190815260200160002080546113449061310b565b80601f01602080910402602001604051908101604052809291908181526020018280546113709061310b565b80156113bd5780601f10611392576101008083540402835291602001916113bd565b820191906000526020600020905b8154815290600101906020018083116113a057829003601f168201915b5050505050905060006113ce611e60565b90506000815114156113e4578192505050611427565b600082511115611419578082604051602001611401929190612acb565b60405160208183030381529060405292505050611427565b61142284611e77565b925050505b919050565b60026007541415611472576040517f08c379a000000000000000000000000000000000000000000000000000000000815260040161146990612e2c565b60405180910390fd5b6002600781905550600a5434146114be576040517f08c379a00000000000000000000000000000000000000000000000000000000081526004016114b590612dac565b60405180910390fd5b60018111611501576040517f08c379a00000000000000000000000000000000000000000000000000000000081526004016114f890612dec565b60405180910390fd5b61150b6008611f1e565b6115156008611f34565b600b819055506040518060c00160405280600b5481526020018473ffffffffffffffffffffffffffffffffffffffff1681526020013373ffffffffffffffffffffffffffffffffffffffff16815260200183815260200160001515815260200182815250600d60008481526020019081526020016000206000820151816000015560208201518160010160006101000a81548173ffffffffffffffffffffffffffffffffffffffff021916908373ffffffffffffffffffffffffffffffffffffffff16021790555060408201518160020160006101000a81548173ffffffffffffffffffffffffffffffffffffffff021916908373ffffffffffffffffffffffffffffffffffffffff1602179055506060820151816003015560808201518160040160006101000a81548160ff02191690831515021790555060a082015181600501559050508273ffffffffffffffffffffffffffffffffffffffff166323b872dd3330856040518463ffffffff1660e01b815260040161169893929190612b0a565b600060405180830381600087803b1580156116b257600080fd5b505af11580156116c6573d6000803e3d6000fd5b50505050813073ffffffffffffffffffffffffffffffffffffffff163373ffffffffffffffffffffffffffffffffffffffff167fddf252ad1be2c89b69c2b068fc378daa952ba7f163c4a11628f55a4df523b3ef60405160405180910390a46001600781905550505050565b6000600560008473ffffffffffffffffffffffffffffffffffffffff1673ffffffffffffffffffffffffffffffffffffffff16815260200190815260200160002060008373ffffffffffffffffffffffffffffffffffffffff1673ffffffffffffffffffffffffffffffffffffffff16815260200190815260200160002060009054906101000a900460ff16905092915050565b60007f01ffc9a7000000000000000000000000000000000000000000000000000000007bffffffffffffffffffffffffffffffffffffffffffffffffffffffff1916827bffffffffffffffffffffffffffffffffffffffffffffffffffffffff1916149050919050565b60008073ffffffffffffffffffffffffffffffffffffffff166002600084815260200190815260200160002060009054906101000a900473ffffffffffffffffffffffffffffffffffffffff1673ffffffffffffffffffffffffffffffffffffffff1614159050919050565b600033905090565b816004600083815260200190815260200160002060006101000a81548173ffffffffffffffffffffffffffffffffffffffff021916908373ffffffffffffffffffffffffffffffffffffffff160217905550808273ffffffffffffffffffffffffffffffffffffffff1661191783610c75565b73ffffffffffffffffffffffffffffffffffffffff167f8c5be1e5ebec7d5bd14f71427d1e84f3dd0314c0f7b2291e5b200ac8c7c3b92560405160405180910390a45050565b600061196882611830565b6119a7576040517f08c379a000000000000000000000000000000000000000000000000000000000815260040161199e90612c6c565b60405180910390fd5b60006119b283610c75565b90508073ffffffffffffffffffffffffffffffffffffffff168473ffffffffffffffffffffffffffffffffffffffff161480611a2157508373ffffffffffffffffffffffffffffffffffffffff16611a09846105e3565b73ffffffffffffffffffffffffffffffffffffffff16145b80611a325750611a318185611732565b5b91505092915050565b8273ffffffffffffffffffffffffffffffffffffffff16611a5b82610c75565b73ffffffffffffffffffffffffffffffffffffffff1614611ab1576040517f08c379a0000000000000000000000000000000000000000000000000000000008152600401611aa890612d4c565b60405180910390fd5b600073ffffffffffffffffffffffffffffffffffffffff168273ffffffffffffffffffffffffffffffffffffffff161415611b21576040517f08c379a0000000000000000000000000000000000000000000000000000000008152600401611b1890612c2c565b60405180910390fd5b611b2c838383611f42565b611b376000826118a4565b6001600360008573ffffffffffffffffffffffffffffffffffffffff1673ffffffffffffffffffffffffffffffffffffffff1681526020019081526020016000206000828254611b879190613021565b925050819055506001600360008473ffffffffffffffffffffffffffffffffffffffff1673ffffffffffffffffffffffffffffffffffffffff1681526020019081526020016000206000828254611bde9190612f9a565b92505081905550816002600083815260200190815260200160002060006101000a81548173ffffffffffffffffffffffffffffffffffffffff021916908373ffffffffffffffffffffffffffffffffffffffff160217905550808273ffffffffffffffffffffffffffffffffffffffff168473ffffffffffffffffffffffffffffffffffffffff167fddf252ad1be2c89b69c2b068fc378daa952ba7f163c4a11628f55a4df523b3ef60405160405180910390a4505050565b8173ffffffffffffffffffffffffffffffffffffffff168373ffffffffffffffffffffffffffffffffffffffff161415611d06576040517f08c379a0000000000000000000000000000000000000000000000000000000008152600401611cfd90612c4c565b60405180910390fd5b80600560008573ffffffffffffffffffffffffffffffffffffffff1673ffffffffffffffffffffffffffffffffffffffff16815260200190815260200160002060008473ffffffffffffffffffffffffffffffffffffffff1673ffffffffffffffffffffffffffffffffffffffff16815260200190815260200160002060006101000a81548160ff0219169083151502179055508173ffffffffffffffffffffffffffffffffffffffff168373ffffffffffffffffffffffffffffffffffffffff167f17307eab39ab6107e8899845ad3d59bd9653f200f220920489ca2b5937696c3183604051611df79190612baf565b60405180910390a3505050565b611e0f848484611a3b565b611e1b84848484611f47565b611e5a576040517f08c379a0000000000000000000000000000000000000000000000000000000008152600401611e5190612bec565b60405180910390fd5b50505050565b606060405180602001604052806000815250905090565b6060611e8282611830565b611ec1576040517f08c379a0000000000000000000000000000000000000000000000000000000008152600401611eb890612d6c565b60405180910390fd5b6000611ecb611e60565b90506000815111611eeb5760405180602001604052806000815250611f16565b80611ef5846120de565b604051602001611f06929190612acb565b6040516020818303038152906040525b915050919050565b6001816000016000828254019250508190555050565b600081600001549050919050565b505050565b6000611f688473ffffffffffffffffffffffffffffffffffffffff1661228b565b156120d1578373ffffffffffffffffffffffffffffffffffffffff1663150b7a02611f9161189c565b8786866040518563ffffffff1660e01b8152600401611fb39493929190612b41565b602060405180830381600087803b158015611fcd57600080fd5b505af1925050508015611ffe57506040513d601f19601f82011682018060405250810190611ffb91906125f2565b60015b612081573d806000811461202e576040519150601f19603f3d011682016040523d82523d6000602084013e612033565b606091505b50600081511415612079576040517f08c379a000000000000000000000000000000000000000000000000000000000815260040161207090612bec565b60405180910390fd5b805181602001fd5b63150b7a0260e01b7bffffffffffffffffffffffffffffffffffffffffffffffffffffffff1916817bffffffffffffffffffffffffffffffffffffffffffffffffffffffff1916149150506120d6565b600190505b949350505050565b60606000821415612126576040518060400160405280600181526020017f30000000000000000000000000000000000000000000000000000000000000008152509050612286565b600082905060005b600082146121585780806121419061316e565b915050600a826121519190612ff0565b915061212e565b60008167ffffffffffffffff81111561219a577f4e487b7100000000000000000000000000000000000000000000000000000000600052604160045260246000fd5b6040519080825280601f01601f1916602001820160405280156121cc5781602001600182028036833780820191505090505b5090505b6000851461227f576001826121e59190613021565b9150600a856121f491906131b7565b60306122009190612f9a565b60f81b81838151811061223c577f4e487b7100000000000000000000000000000000000000000000000000000000600052603260045260246000fd5b60200101907effffffffffffffffffffffffffffffffffffffffffffffffffffffffffffff1916908160001a905350600a856122789190612ff0565b94506121d0565b8093505050505b919050565b600080823b905060008111915050919050565b6040518060c0016040528060008152602001600073ffffffffffffffffffffffffffffffffffffffff168152602001600073ffffffffffffffffffffffffffffffffffffffff16815260200160008152602001600015158152602001600081525090565b600061231561231084612eed565b612ec8565b90508281526020810184848401111561232d57600080fd5b6123388482856130c9565b509392505050565b60008135905061234f816137ae565b92915050565b600081359050612364816137c5565b92915050565b600081359050612379816137dc565b92915050565b60008151905061238e816137dc565b92915050565b600082601f8301126123a557600080fd5b81356123b5848260208601612302565b91505092915050565b6000813590506123cd816137f3565b92915050565b6000602082840312156123e557600080fd5b60006123f384828501612340565b91505092915050565b6000806040838503121561240f57600080fd5b600061241d85828601612340565b925050602061242e85828601612340565b9150509250929050565b60008060006060848603121561244d57600080fd5b600061245b86828701612340565b935050602061246c86828701612340565b925050604061247d868287016123be565b9150509250925092565b6000806000806080858703121561249d57600080fd5b60006124ab87828801612340565b94505060206124bc87828801612340565b93505060406124cd878288016123be565b925050606085013567ffffffffffffffff8111156124ea57600080fd5b6124f687828801612394565b91505092959194509250565b6000806040838503121561251557600080fd5b600061252385828601612340565b925050602061253485828601612355565b9150509250929050565b6000806040838503121561255157600080fd5b600061255f85828601612340565b9250506020612570858286016123be565b9150509250929050565b60008060006060848603121561258f57600080fd5b600061259d86828701612340565b93505060206125ae868287016123be565b92505060406125bf868287016123be565b9150509250925092565b6000602082840312156125db57600080fd5b60006125e98482850161236a565b91505092915050565b60006020828403121561260457600080fd5b60006126128482850161237f565b91505092915050565b60006020828403121561262d57600080fd5b600061263b848285016123be565b91505092915050565b60006126508383612a32565b60c08301905092915050565b61266581613055565b82525050565b61267481613055565b82525050565b600061268582612f2e565b61268f8185612f5c565b935061269a83612f1e565b8060005b838110156126cb5781516126b28882612644565b97506126bd83612f4f565b92505060018101905061269e565b5085935050505092915050565b6126e181613067565b82525050565b6126f081613067565b82525050565b600061270182612f39565b61270b8185612f6d565b935061271b8185602086016130d8565b612724816132a4565b840191505092915050565b600061273a82612f44565b6127448185612f7e565b93506127548185602086016130d8565b61275d816132a4565b840191505092915050565b600061277382612f44565b61277d8185612f8f565b935061278d8185602086016130d8565b80840191505092915050565b60006127a6603283612f7e565b91506127b1826132b5565b604082019050919050565b60006127c9600e83612f7e565b91506127d482613304565b602082019050919050565b60006127ec602483612f7e565b91506127f78261332d565b604082019050919050565b600061280f601983612f7e565b915061281a8261337c565b602082019050919050565b6000612832602c83612f7e565b915061283d826133a5565b604082019050919050565b6000612855603883612f7e565b9150612860826133f4565b604082019050919050565b6000612878602a83612f7e565b915061288382613443565b604082019050919050565b600061289b602983612f7e565b91506128a682613492565b604082019050919050565b60006128be603183612f7e565b91506128c9826134e1565b604082019050919050565b60006128e1602c83612f7e565b91506128ec82613530565b604082019050919050565b6000612904601f83612f7e565b915061290f8261357f565b602082019050919050565b6000612927602983612f7e565b9150612932826135a8565b604082019050919050565b600061294a602f83612f7e565b9150612955826135f7565b604082019050919050565b600061296d602183612f7e565b915061297882613646565b604082019050919050565b6000612990602183612f7e565b915061299b82613695565b604082019050919050565b60006129b3603183612f7e565b91506129be826136e4565b604082019050919050565b60006129d6601f83612f7e565b91506129e182613733565b602082019050919050565b60006129f9601883612f7e565b9150612a048261375c565b602082019050919050565b6000612a1c601f83612f7e565b9150612a2782613785565b602082019050919050565b60c082016000820151612a486000850182612aad565b506020820151612a5b602085018261265c565b506040820151612a6e604085018261265c565b506060820151612a816060850182612aad565b506080820151612a9460808501826126d8565b5060a0820151612aa760a0850182612aad565b50505050565b612ab6816130bf565b82525050565b612ac5816130bf565b82525050565b6000612ad78285612768565b9150612ae38284612768565b91508190509392505050565b6000602082019050612b04600083018461266b565b92915050565b6000606082019050612b1f600083018661266b565b612b2c602083018561266b565b612b396040830184612abc565b949350505050565b6000608082019050612b56600083018761266b565b612b63602083018661266b565b612b706040830185612abc565b8181036060830152612b8281846126f6565b905095945050505050565b60006020820190508181036000830152612ba7818461267a565b905092915050565b6000602082019050612bc460008301846126e7565b92915050565b60006020820190508181036000830152612be4818461272f565b905092915050565b60006020820190508181036000830152612c0581612799565b9050919050565b60006020820190508181036000830152612c25816127bc565b9050919050565b60006020820190508181036000830152612c45816127df565b9050919050565b60006020820190508181036000830152612c6581612802565b9050919050565b60006020820190508181036000830152612c8581612825565b9050919050565b60006020820190508181036000830152612ca581612848565b9050919050565b60006020820190508181036000830152612cc58161286b565b9050919050565b60006020820190508181036000830152612ce58161288e565b9050919050565b60006020820190508181036000830152612d05816128b1565b9050919050565b60006020820190508181036000830152612d25816128d4565b9050919050565b60006020820190508181036000830152612d45816128f7565b9050919050565b60006020820190508181036000830152612d658161291a565b9050919050565b60006020820190508181036000830152612d858161293d565b9050919050565b60006020820190508181036000830152612da581612960565b9050919050565b60006020820190508181036000830152612dc581612983565b9050919050565b60006020820190508181036000830152612de5816129a6565b9050919050565b60006020820190508181036000830152612e05816129c9565b9050919050565b60006020820190508181036000830152612e25816129ec565b9050919050565b60006020820190508181036000830152612e4581612a0f565b9050919050565b6000602082019050612e616000830184612abc565b92915050565b600060c082019050612e7c6000830189612abc565b612e89602083018861266b565b612e96604083018761266b565b612ea36060830186612abc565b612eb060808301856126e7565b612ebd60a0830184612abc565b979650505050505050565b6000612ed2612ee3565b9050612ede828261313d565b919050565b6000604051905090565b600067ffffffffffffffff821115612f0857612f07613275565b5b612f11826132a4565b9050602081019050919050565b6000819050602082019050919050565b600081519050919050565b600081519050919050565b600081519050919050565b6000602082019050919050565b600082825260208201905092915050565b600082825260208201905092915050565b600082825260208201905092915050565b600081905092915050565b6000612fa5826130bf565b9150612fb0836130bf565b9250827fffffffffffffffffffffffffffffffffffffffffffffffffffffffffffffffff03821115612fe557612fe46131e8565b5b828201905092915050565b6000612ffb826130bf565b9150613006836130bf565b92508261301657613015613217565b5b828204905092915050565b600061302c826130bf565b9150613037836130bf565b92508282101561304a576130496131e8565b5b828203905092915050565b60006130608261309f565b9050919050565b60008115159050919050565b60007fffffffff0000000000000000000000000000000000000000000000000000000082169050919050565b600073ffffffffffffffffffffffffffffffffffffffff82169050919050565b6000819050919050565b82818337600083830152505050565b60005b838110156130f65780820151818401526020810190506130db565b83811115613105576000848401525b50505050565b6000600282049050600182168061312357607f821691505b6020821081141561313757613136613246565b5b50919050565b613146826132a4565b810181811067ffffffffffffffff8211171561316557613164613275565b5b80604052505050565b6000613179826130bf565b91507fffffffffffffffffffffffffffffffffffffffffffffffffffffffffffffffff8214156131ac576131ab6131e8565b5b600182019050919050565b60006131c2826130bf565b91506131cd836130bf565b9250826131dd576131dc613217565b5b828206905092915050565b7f4e487b7100000000000000000000000000000000000000000000000000000000600052601160045260246000fd5b7f4e487b7100000000000000000000000000000000000000000000000000000000600052601260045260246000fd5b7f4e487b7100000000000000000000000000000000000000000000000000000000600052602260045260246000fd5b7f4e487b7100000000000000000000000000000000000000000000000000000000600052604160045260246000fd5b6000601f19601f8301169050919050565b7f4552433732313a207472616e7366657220746f206e6f6e20455243373231526560008201527f63656976657220696d706c656d656e7465720000000000000000000000000000602082015250565b7f6e6f20617373657420666f756e64000000000000000000000000000000000000600082015250565b7f4552433732313a207472616e7366657220746f20746865207a65726f2061646460008201527f7265737300000000000000000000000000000000000000000000000000000000602082015250565b7f4552433732313a20617070726f766520746f2063616c6c657200000000000000600082015250565b7f4552433732313a206f70657261746f7220717565727920666f72206e6f6e657860008201527f697374656e7420746f6b656e0000000000000000000000000000000000000000602082015250565b7f4552433732313a20617070726f76652063616c6c6572206973206e6f74206f7760008201527f6e6572206e6f7220617070726f76656420666f7220616c6c0000000000000000602082015250565b7f4552433732313a2062616c616e636520717565727920666f7220746865207a6560008201527f726f206164647265737300000000000000000000000000000000000000000000602082015250565b7f4552433732313a206f776e657220717565727920666f72206e6f6e657869737460008201527f656e7420746f6b656e0000000000000000000000000000000000000000000000602082015250565b7f45524337323155524953746f726167653a2055524920717565727920666f722060008201527f6e6f6e6578697374656e7420746f6b656e000000000000000000000000000000602082015250565b7f4552433732313a20617070726f76656420717565727920666f72206e6f6e657860008201527f697374656e7420746f6b656e0000000000000000000000000000000000000000602082015250565b7f706c656173652070726f766964652074686520707269636520616d6f756e7400600082015250565b7f4552433732313a207472616e73666572206f6620746f6b656e2074686174206960008201527f73206e6f74206f776e0000000000000000000000000000000000000000000000602082015250565b7f4552433732314d657461646174613a2055524920717565727920666f72206e6f60008201527f6e6578697374656e7420746f6b656e0000000000000000000000000000000000602082015250565b7f4552433732313a20617070726f76616c20746f2063757272656e74206f776e6560008201527f7200000000000000000000000000000000000000000000000000000000000000602082015250565b7f506c656173652070726f7669646520746865206c697374696e6720616d6f756e60008201527f7400000000000000000000000000000000000000000000000000000000000000602082015250565b7f4552433732313a207472616e736665722063616c6c6572206973206e6f74206f60008201527f776e6572206e6f7220617070726f766564000000000000000000000000000000602082015250565b7f506c656173652070726f76696465207468652073616c657320616d6f756e7400600082015250565b7f596f7520646f6e2774206861766520616e792061737365740000000000000000600082015250565b7f5265656e7472616e637947756172643a207265656e7472616e742063616c6c00600082015250565b6137b781613055565b81146137c257600080fd5b50565b6137ce81613067565b81146137d957600080fd5b50565b6137e581613073565b81146137f057600080fd5b50565b6137fc816130bf565b811461380757600080fd5b5056fea2646970667358221220e009bb6607bb5bff7f24e56fffbbdd94c7f1f7658cc151b581ce99e1da98063e64736f6c63430008040033",
  "linkReferences": {},
  "deployedLinkReferences": {}
}