{
  "_format": "hh-sol-artifact-1",
  "contractName": "NFTMarket",
  "sourceName": "contracts/NftMarket.sol",
  "abi": [
    {
      "inputs": [],
      "stateMutability": "nonpayable",
      "type": "constructor"
    },
    {
      "inputs": [
        {
          "internalType": "string",
          "name": "msg",
          "type": "string"
        }
      ],
      "name": "NoAssetFound",
      "type": "error"
    },
    {
      "anonymous": false,
      "inputs": [
        {
          "indexed": true,
          "internalType": "address",
          "name": "owner",
          "type": "address"
        },
        {
          "indexed": true,
          "internalType": "address",
          "name": "approved",
          "type": "address"
        },
        {
          "indexed": true,
          "internalType": "uint256",
          "name": "tokenId",
          "type": "uint256"
        }
      ],
      "name": "Approval",
      "type": "event"
    },
    {
      "anonymous": false,
      "inputs": [
        {
          "indexed": true,
          "internalType": "address",
          "name": "owner",
          "type": "address"
        },
        {
          "indexed": true,
          "internalType": "address",
          "name": "operator",
          "type": "address"
        },
        {
          "indexed": false,
          "internalType": "bool",
          "name": "approved",
          "type": "bool"
        }
      ],
      "name": "ApprovalForAll",
      "type": "event"
    },
    {
      "anonymous": false,
      "inputs": [
        {
          "indexed": true,
          "internalType": "address",
          "name": "from",
          "type": "address"
        },
        {
          "indexed": true,
          "internalType": "address",
          "name": "to",
          "type": "address"
        },
        {
          "indexed": true,
          "internalType": "uint256",
          "name": "tokenId",
          "type": "uint256"
        }
      ],
      "name": "Transfer",
      "type": "event"
    },
    {
      "inputs": [
        {
          "internalType": "address",
          "name": "to",
          "type": "address"
        },
        {
          "internalType": "uint256",
          "name": "tokenId",
          "type": "uint256"
        }
      ],
      "name": "approve",
      "outputs": [],
      "stateMutability": "nonpayable",
      "type": "function"
    },
    {
      "inputs": [
        {
          "internalType": "address",
          "name": "owner",
          "type": "address"
        }
      ],
      "name": "balanceOf",
      "outputs": [
        {
          "internalType": "uint256",
          "name": "",
          "type": "uint256"
        }
      ],
      "stateMutability": "view",
      "type": "function"
    },
    {
      "inputs": [
        {
          "internalType": "uint256",
          "name": "index",
          "type": "uint256"
        }
      ],
      "name": "buyNftAsset",
      "outputs": [],
      "stateMutability": "payable",
      "type": "function"
    },
    {
      "inputs": [
        {
          "internalType": "uint256",
          "name": "tokenId",
          "type": "uint256"
        }
      ],
      "name": "getApproved",
      "outputs": [
        {
          "internalType": "address",
          "name": "",
          "type": "address"
        }
      ],
      "stateMutability": "view",
      "type": "function"
    },
    {
      "inputs": [
        {
          "internalType": "address",
          "name": "owner",
          "type": "address"
        },
        {
          "internalType": "address",
          "name": "operator",
          "type": "address"
        }
      ],
      "name": "isApprovedForAll",
      "outputs": [
        {
          "internalType": "bool",
          "name": "",
          "type": "bool"
        }
      ],
      "stateMutability": "view",
      "type": "function"
    },
    {
      "inputs": [],
      "name": "listAllNft",
      "outputs": [
        {
          "components": [
            {
              "internalType": "uint256",
              "name": "index",
              "type": "uint256"
            },
            {
              "internalType": "address",
              "name": "owner",
              "type": "address"
            },
            {
              "internalType": "uint256",
              "name": "_tokenId",
              "type": "uint256"
            },
            {
              "internalType": "bool",
              "name": "sold",
              "type": "bool"
            },
            {
              "internalType": "uint256",
              "name": "price",
              "type": "uint256"
            }
          ],
          "internalType": "struct NFTMarket.NftItem[]",
          "name": "",
          "type": "tuple[]"
        }
      ],
      "stateMutability": "nonpayable",
      "type": "function"
    },
    {
      "inputs": [],
      "name": "listMyAssets",
      "outputs": [
        {
          "components": [
            {
              "internalType": "uint256",
              "name": "index",
              "type": "uint256"
            },
            {
              "internalType": "address",
              "name": "owner",
              "type": "address"
            },
            {
              "internalType": "uint256",
              "name": "_tokenId",
              "type": "uint256"
            },
            {
              "internalType": "bool",
              "name": "sold",
              "type": "bool"
            },
            {
              "internalType": "uint256",
              "name": "price",
              "type": "uint256"
            }
          ],
          "internalType": "struct NFTMarket.NftItem[]",
          "name": "",
          "type": "tuple[]"
        }
      ],
      "stateMutability": "nonpayable",
      "type": "function"
    },
    {
      "inputs": [],
      "name": "name",
      "outputs": [
        {
          "internalType": "string",
          "name": "",
          "type": "string"
        }
      ],
      "stateMutability": "view",
      "type": "function"
    },
    {
      "inputs": [
        {
          "internalType": "uint256",
          "name": "tokenId",
          "type": "uint256"
        }
      ],
      "name": "ownerOf",
      "outputs": [
        {
          "internalType": "address",
          "name": "",
          "type": "address"
        }
      ],
      "stateMutability": "view",
      "type": "function"
    },
    {
      "inputs": [
        {
          "internalType": "address",
          "name": "from",
          "type": "address"
        },
        {
          "internalType": "address",
          "name": "to",
          "type": "address"
        },
        {
          "internalType": "uint256",
          "name": "tokenId",
          "type": "uint256"
        }
      ],
      "name": "safeTransferFrom",
      "outputs": [],
      "stateMutability": "nonpayable",
      "type": "function"
    },
    {
      "inputs": [
        {
          "internalType": "address",
          "name": "from",
          "type": "address"
        },
        {
          "internalType": "address",
          "name": "to",
          "type": "address"
        },
        {
          "internalType": "uint256",
          "name": "tokenId",
          "type": "uint256"
        },
        {
          "internalType": "bytes",
          "name": "_data",
          "type": "bytes"
        }
      ],
      "name": "safeTransferFrom",
      "outputs": [],
      "stateMutability": "nonpayable",
      "type": "function"
    },
    {
      "inputs": [
        {
          "internalType": "uint256",
          "name": "_tokenId",
          "type": "uint256"
        },
        {
          "internalType": "uint256",
          "name": "price",
          "type": "uint256"
        }
      ],
      "name": "sellNftAsset",
      "outputs": [
        {
          "internalType": "uint256",
          "name": "",
          "type": "uint256"
        }
      ],
      "stateMutability": "payable",
      "type": "function"
    },
    {
      "inputs": [
        {
          "internalType": "address",
          "name": "operator",
          "type": "address"
        },
        {
          "internalType": "bool",
          "name": "approved",
          "type": "bool"
        }
      ],
      "name": "setApprovalForAll",
      "outputs": [],
      "stateMutability": "nonpayable",
      "type": "function"
    },
    {
      "inputs": [
        {
          "internalType": "bytes4",
          "name": "interfaceId",
          "type": "bytes4"
        }
      ],
      "name": "supportsInterface",
      "outputs": [
        {
          "internalType": "bool",
          "name": "",
          "type": "bool"
        }
      ],
      "stateMutability": "view",
      "type": "function"
    },
    {
      "inputs": [],
      "name": "symbol",
      "outputs": [
        {
          "internalType": "string",
          "name": "",
          "type": "string"
        }
      ],
      "stateMutability": "view",
      "type": "function"
    },
    {
      "inputs": [
        {
          "internalType": "uint256",
          "name": "tokenId",
          "type": "uint256"
        }
      ],
      "name": "tokenURI",
      "outputs": [
        {
          "internalType": "string",
          "name": "",
          "type": "string"
        }
      ],
      "stateMutability": "view",
      "type": "function"
    },
    {
      "inputs": [
        {
          "internalType": "address",
          "name": "from",
          "type": "address"
        },
        {
          "internalType": "address",
          "name": "to",
          "type": "address"
        },
        {
          "internalType": "uint256",
          "name": "tokenId",
          "type": "uint256"
        }
      ],
      "name": "transferFrom",
      "outputs": [],
      "stateMutability": "nonpayable",
      "type": "function"
    }
  ],
  "bytecode": "0x60806040526001600a553480156200001657600080fd5b506040518060400160405280600c81526020017f4d794e46542d546f6b656e7300000000000000000000000000000000000000008152506040518060400160405280600381526020017f554d54000000000000000000000000000000000000000000000000000000000081525081600090805190602001906200009b92919062000106565b508060019080519060200190620000b492919062000106565b505050600160078190555033600960006101000a81548173ffffffffffffffffffffffffffffffffffffffff021916908373ffffffffffffffffffffffffffffffffffffffff1602179055506200021b565b8280546200011490620001b6565b90600052602060002090601f01602090048101928262000138576000855562000184565b82601f106200015357805160ff191683800117855562000184565b8280016001018555821562000184579182015b828111156200018357825182559160200191906001019062000166565b5b50905062000193919062000197565b5090565b5b80821115620001b257600081600090555060010162000198565b5090565b60006002820490506001821680620001cf57607f821691505b60208210811415620001e657620001e5620001ec565b5b50919050565b7f4e487b7100000000000000000000000000000000000000000000000000000000600052602260045260246000fd5b613546806200022b6000396000f3fe6080604052600436106100fe5760003560e01c80636352211e11610095578063a22cb46511610064578063a22cb4651461033a578063b88d4fde14610363578063c87b56dd1461038c578063d5c038c0146103c9578063e985e9c5146103f9576100fe565b80636352211e1461026a57806370a08231146102a7578063885b6c7d146102e457806395d89b411461030f576100fe565b80631a3ee588116100d15780631a3ee588146101d157806323b872dd146101ed57806337aa72c81461021657806342842e0e14610241576100fe565b806301ffc9a71461010357806306fdde0314610140578063081812fc1461016b578063095ea7b3146101a8575b600080fd5b34801561010f57600080fd5b5061012a60048036038101906101259190612318565b610436565b60405161013791906128f0565b60405180910390f35b34801561014c57600080fd5b50610155610518565b604051610162919061290b565b60405180910390f35b34801561017757600080fd5b50610192600480360381019061018d919061236a565b6105aa565b60405161019f9190612867565b60405180910390f35b3480156101b457600080fd5b506101cf60048036038101906101ca91906122dc565b61062f565b005b6101eb60048036038101906101e6919061236a565b610747565b005b3480156101f957600080fd5b50610214600480360381019061020f91906121d6565b610981565b005b34801561022257600080fd5b5061022b6109e1565b60405161023891906128ce565b60405180910390f35b34801561024d57600080fd5b50610268600480360381019061026391906121d6565b610c2d565b005b34801561027657600080fd5b50610291600480360381019061028c919061236a565b610c4d565b60405161029e9190612867565b60405180910390f35b3480156102b357600080fd5b506102ce60048036038101906102c99190612171565b610cff565b6040516102db9190612b8d565b60405180910390f35b3480156102f057600080fd5b506102f9610db7565b60405161030691906128ce565b60405180910390f35b34801561031b57600080fd5b50610324611062565b604051610331919061290b565b60405180910390f35b34801561034657600080fd5b50610361600480360381019061035c91906122a0565b6110f4565b005b34801561036f57600080fd5b5061038a60048036038101906103859190612225565b61110a565b005b34801561039857600080fd5b506103b360048036038101906103ae919061236a565b61116c565b6040516103c0919061290b565b60405180910390f35b6103e360048036038101906103de9190612393565b6112be565b6040516103f09190612b8d565b60405180910390f35b34801561040557600080fd5b50610420600480360381019061041b919061219a565b611534565b60405161042d91906128f0565b60405180910390f35b60007f80ac58cd000000000000000000000000000000000000000000000000000000007bffffffffffffffffffffffffffffffffffffffffffffffffffffffff1916827bffffffffffffffffffffffffffffffffffffffffffffffffffffffff1916148061050157507f5b5e139f000000000000000000000000000000000000000000000000000000007bffffffffffffffffffffffffffffffffffffffffffffffffffffffff1916827bffffffffffffffffffffffffffffffffffffffffffffffffffffffff1916145b806105115750610510826115c8565b5b9050919050565b60606000805461052790612deb565b80601f016020809104026020016040519081016040528092919081815260200182805461055390612deb565b80156105a05780601f10610575576101008083540402835291602001916105a0565b820191906000526020600020905b81548152906001019060200180831161058357829003601f168201915b5050505050905090565b60006105b582611632565b6105f4576040517f08c379a00000000000000000000000000000000000000000000000000000000081526004016105eb90612a2d565b60405180910390fd5b6004600083815260200190815260200160002060009054906101000a900473ffffffffffffffffffffffffffffffffffffffff169050919050565b600061063a82610c4d565b90508073ffffffffffffffffffffffffffffffffffffffff168373ffffffffffffffffffffffffffffffffffffffff1614156106ab576040517f08c379a00000000000000000000000000000000000000000000000000000000081526004016106a290612aad565b60405180910390fd5b8073ffffffffffffffffffffffffffffffffffffffff166106ca61169e565b73ffffffffffffffffffffffffffffffffffffffff1614806106f957506106f8816106f361169e565b611534565b5b610738576040517f08c379a000000000000000000000000000000000000000000000000000000000815260040161072f906129ad565b60405180910390fd5b61074283836116a6565b505050565b6002600754141561078d576040517f08c379a000000000000000000000000000000000000000000000000000000000815260040161078490612b6d565b60405180910390fd5b60026007819055506000600e60008381526020019081526020016000206004015490506000600e600084815260200190815260200160002060020154905081341461080d576040517f08c379a000000000000000000000000000000000000000000000000000000000815260040161080490612a4d565b60405180910390fd5b600e600084815260200190815260200160002060010160009054906101000a900473ffffffffffffffffffffffffffffffffffffffff1673ffffffffffffffffffffffffffffffffffffffff166108fc349081150290604051600060405180830381858888f19350505050158015610889573d6000803e3d6000fd5b50610895303383610c2d565b33600e600085815260200190815260200160002060010160006101000a81548173ffffffffffffffffffffffffffffffffffffffff021916908373ffffffffffffffffffffffffffffffffffffffff1602179055506001600e600085815260200190815260200160002060030160006101000a81548160ff021916908315150217905550803373ffffffffffffffffffffffffffffffffffffffff163073ffffffffffffffffffffffffffffffffffffffff167fddf252ad1be2c89b69c2b068fc378daa952ba7f163c4a11628f55a4df523b3ef60405160405180910390a45050600160078190555050565b61099261098c61169e565b8261175f565b6109d1576040517f08c379a00000000000000000000000000000000000000000000000000000000081526004016109c890612b0d565b60405180910390fd5b6109dc83838361183d565b505050565b60606000600b541115610b065760005b600b54811015610b0057600c600e60008381526020019081526020016000209080600181540180825580915050600190039060005260206000209060050201600090919091909150600082015481600001556001820160009054906101000a900473ffffffffffffffffffffffffffffffffffffffff168160010160006101000a81548173ffffffffffffffffffffffffffffffffffffffff021916908373ffffffffffffffffffffffffffffffffffffffff160217905550600282015481600201556003820160009054906101000a900460ff168160030160006101000a81548160ff0219169083151502179055506004820154816004015550508080610af890612e4e565b9150506109f1565b50610b41565b6040517f7e47d87c000000000000000000000000000000000000000000000000000000008152600401610b3890612aed565b60405180910390fd5b600c805480602002602001604051908101604052809291908181526020016000905b82821015610c2457838290600052602060002090600502016040518060a0016040529081600082015481526020016001820160009054906101000a900473ffffffffffffffffffffffffffffffffffffffff1673ffffffffffffffffffffffffffffffffffffffff1673ffffffffffffffffffffffffffffffffffffffff168152602001600282015481526020016003820160009054906101000a900460ff1615151515815260200160048201548152505081526020019060010190610b63565b50505050905090565b610c488383836040518060200160405280600081525061110a565b505050565b6000806002600084815260200190815260200160002060009054906101000a900473ffffffffffffffffffffffffffffffffffffffff169050600073ffffffffffffffffffffffffffffffffffffffff168173ffffffffffffffffffffffffffffffffffffffff161415610cf6576040517f08c379a0000000000000000000000000000000000000000000000000000000008152600401610ced906129ed565b60405180910390fd5b80915050919050565b60008073ffffffffffffffffffffffffffffffffffffffff168273ffffffffffffffffffffffffffffffffffffffff161415610d70576040517f08c379a0000000000000000000000000000000000000000000000000000000008152600401610d67906129cd565b60405180910390fd5b600360008373ffffffffffffffffffffffffffffffffffffffff1673ffffffffffffffffffffffffffffffffffffffff168152602001908152602001600020549050919050565b606060005b600b54811015610f75573373ffffffffffffffffffffffffffffffffffffffff16600e600083815260200190815260200160002060010160009054906101000a900473ffffffffffffffffffffffffffffffffffffffff1673ffffffffffffffffffffffffffffffffffffffff161415610f2757600d600e60008381526020019081526020016000209080600181540180825580915050600190039060005260206000209060050201600090919091909150600082015481600001556001820160009054906101000a900473ffffffffffffffffffffffffffffffffffffffff168160010160006101000a81548173ffffffffffffffffffffffffffffffffffffffff021916908373ffffffffffffffffffffffffffffffffffffffff160217905550600282015481600201556003820160009054906101000a900460ff168160030160006101000a81548160ff021916908315150217905550600482015481600401555050610f62565b6040517f7e47d87c000000000000000000000000000000000000000000000000000000008152600401610f5990612b4d565b60405180910390fd5b8080610f6d90612e4e565b915050610dbc565b50600d805480602002602001604051908101604052809291908181526020016000905b8282101561105957838290600052602060002090600502016040518060a0016040529081600082015481526020016001820160009054906101000a900473ffffffffffffffffffffffffffffffffffffffff1673ffffffffffffffffffffffffffffffffffffffff1673ffffffffffffffffffffffffffffffffffffffff168152602001600282015481526020016003820160009054906101000a900460ff1615151515815260200160048201548152505081526020019060010190610f98565b50505050905090565b60606001805461107190612deb565b80601f016020809104026020016040519081016040528092919081815260200182805461109d90612deb565b80156110ea5780601f106110bf576101008083540402835291602001916110ea565b820191906000526020600020905b8154815290600101906020018083116110cd57829003601f168201915b5050505050905090565b6111066110ff61169e565b8383611a99565b5050565b61111b61111561169e565b8361175f565b61115a576040517f08c379a000000000000000000000000000000000000000000000000000000000815260040161115190612b0d565b60405180910390fd5b61116684848484611c06565b50505050565b606061117782611632565b6111b6576040517f08c379a00000000000000000000000000000000000000000000000000000000081526004016111ad90612a0d565b60405180910390fd5b60006006600084815260200190815260200160002080546111d690612deb565b80601f016020809104026020016040519081016040528092919081815260200182805461120290612deb565b801561124f5780601f106112245761010080835404028352916020019161124f565b820191906000526020600020905b81548152906001019060200180831161123257829003601f168201915b505050505090506000611260611c62565b90506000815114156112765781925050506112b9565b6000825111156112ab578082604051602001611293929190612843565b604051602081830303815290604052925050506112b9565b6112b484611c79565b925050505b919050565b600060026007541415611306576040517f08c379a00000000000000000000000000000000000000000000000000000000081526004016112fd90612b6d565b60405180910390fd5b6002600781905550600a543414611352576040517f08c379a000000000000000000000000000000000000000000000000000000000815260040161134990612acd565b60405180910390fd5b60018211611395576040517f08c379a000000000000000000000000000000000000000000000000000000000815260040161138c90612b2d565b60405180910390fd5b61139f6008611d20565b60006113ab6008611d36565b90506113b76008611d36565b600b819055506040518060a001604052808281526020013373ffffffffffffffffffffffffffffffffffffffff16815260200185815260200160001515815260200184815250600e60008381526020019081526020016000206000820151816000015560208201518160010160006101000a81548173ffffffffffffffffffffffffffffffffffffffff021916908373ffffffffffffffffffffffffffffffffffffffff1602179055506040820151816002015560608201518160030160006101000a81548160ff02191690831515021790555060808201518160040155905050600960009054906101000a900473ffffffffffffffffffffffffffffffffffffffff1673ffffffffffffffffffffffffffffffffffffffff166108fc349081150290604051600060405180830381858888f19350505050158015611500573d6000803e3d6000fd5b5061150c333086610c2d565b600e600082815260200190815260200160002060040154915050600160078190555092915050565b6000600560008473ffffffffffffffffffffffffffffffffffffffff1673ffffffffffffffffffffffffffffffffffffffff16815260200190815260200160002060008373ffffffffffffffffffffffffffffffffffffffff1673ffffffffffffffffffffffffffffffffffffffff16815260200190815260200160002060009054906101000a900460ff16905092915050565b60007f01ffc9a7000000000000000000000000000000000000000000000000000000007bffffffffffffffffffffffffffffffffffffffffffffffffffffffff1916827bffffffffffffffffffffffffffffffffffffffffffffffffffffffff1916149050919050565b60008073ffffffffffffffffffffffffffffffffffffffff166002600084815260200190815260200160002060009054906101000a900473ffffffffffffffffffffffffffffffffffffffff1673ffffffffffffffffffffffffffffffffffffffff1614159050919050565b600033905090565b816004600083815260200190815260200160002060006101000a81548173ffffffffffffffffffffffffffffffffffffffff021916908373ffffffffffffffffffffffffffffffffffffffff160217905550808273ffffffffffffffffffffffffffffffffffffffff1661171983610c4d565b73ffffffffffffffffffffffffffffffffffffffff167f8c5be1e5ebec7d5bd14f71427d1e84f3dd0314c0f7b2291e5b200ac8c7c3b92560405160405180910390a45050565b600061176a82611632565b6117a9576040517f08c379a00000000000000000000000000000000000000000000000000000000081526004016117a09061298d565b60405180910390fd5b60006117b483610c4d565b90508073ffffffffffffffffffffffffffffffffffffffff168473ffffffffffffffffffffffffffffffffffffffff16148061182357508373ffffffffffffffffffffffffffffffffffffffff1661180b846105aa565b73ffffffffffffffffffffffffffffffffffffffff16145b8061183457506118338185611534565b5b91505092915050565b8273ffffffffffffffffffffffffffffffffffffffff1661185d82610c4d565b73ffffffffffffffffffffffffffffffffffffffff16146118b3576040517f08c379a00000000000000000000000000000000000000000000000000000000081526004016118aa90612a6d565b60405180910390fd5b600073ffffffffffffffffffffffffffffffffffffffff168273ffffffffffffffffffffffffffffffffffffffff161415611923576040517f08c379a000000000000000000000000000000000000000000000000000000000815260040161191a9061294d565b60405180910390fd5b61192e838383611d44565b6119396000826116a6565b6001600360008573ffffffffffffffffffffffffffffffffffffffff1673ffffffffffffffffffffffffffffffffffffffff16815260200190815260200160002060008282546119899190612d01565b925050819055506001600360008473ffffffffffffffffffffffffffffffffffffffff1673ffffffffffffffffffffffffffffffffffffffff16815260200190815260200160002060008282546119e09190612c7a565b92505081905550816002600083815260200190815260200160002060006101000a81548173ffffffffffffffffffffffffffffffffffffffff021916908373ffffffffffffffffffffffffffffffffffffffff160217905550808273ffffffffffffffffffffffffffffffffffffffff168473ffffffffffffffffffffffffffffffffffffffff167fddf252ad1be2c89b69c2b068fc378daa952ba7f163c4a11628f55a4df523b3ef60405160405180910390a4505050565b8173ffffffffffffffffffffffffffffffffffffffff168373ffffffffffffffffffffffffffffffffffffffff161415611b08576040517f08c379a0000000000000000000000000000000000000000000000000000000008152600401611aff9061296d565b60405180910390fd5b80600560008573ffffffffffffffffffffffffffffffffffffffff1673ffffffffffffffffffffffffffffffffffffffff16815260200190815260200160002060008473ffffffffffffffffffffffffffffffffffffffff1673ffffffffffffffffffffffffffffffffffffffff16815260200190815260200160002060006101000a81548160ff0219169083151502179055508173ffffffffffffffffffffffffffffffffffffffff168373ffffffffffffffffffffffffffffffffffffffff167f17307eab39ab6107e8899845ad3d59bd9653f200f220920489ca2b5937696c3183604051611bf991906128f0565b60405180910390a3505050565b611c1184848461183d565b611c1d84848484611d49565b611c5c576040517f08c379a0000000000000000000000000000000000000000000000000000000008152600401611c539061292d565b60405180910390fd5b50505050565b606060405180602001604052806000815250905090565b6060611c8482611632565b611cc3576040517f08c379a0000000000000000000000000000000000000000000000000000000008152600401611cba90612a8d565b60405180910390fd5b6000611ccd611c62565b90506000815111611ced5760405180602001604052806000815250611d18565b80611cf784611ee0565b604051602001611d08929190612843565b6040516020818303038152906040525b915050919050565b6001816000016000828254019250508190555050565b600081600001549050919050565b505050565b6000611d6a8473ffffffffffffffffffffffffffffffffffffffff1661208d565b15611ed3578373ffffffffffffffffffffffffffffffffffffffff1663150b7a02611d9361169e565b8786866040518563ffffffff1660e01b8152600401611db59493929190612882565b602060405180830381600087803b158015611dcf57600080fd5b505af1925050508015611e0057506040513d601f19601f82011682018060405250810190611dfd9190612341565b60015b611e83573d8060008114611e30576040519150601f19603f3d011682016040523d82523d6000602084013e611e35565b606091505b50600081511415611e7b576040517f08c379a0000000000000000000000000000000000000000000000000000000008152600401611e729061292d565b60405180910390fd5b805181602001fd5b63150b7a0260e01b7bffffffffffffffffffffffffffffffffffffffffffffffffffffffff1916817bffffffffffffffffffffffffffffffffffffffffffffffffffffffff191614915050611ed8565b600190505b949350505050565b60606000821415611f28576040518060400160405280600181526020017f30000000000000000000000000000000000000000000000000000000000000008152509050612088565b600082905060005b60008214611f5a578080611f4390612e4e565b915050600a82611f539190612cd0565b9150611f30565b60008167ffffffffffffffff811115611f9c577f4e487b7100000000000000000000000000000000000000000000000000000000600052604160045260246000fd5b6040519080825280601f01601f191660200182016040528015611fce5781602001600182028036833780820191505090505b5090505b6000851461208157600182611fe79190612d01565b9150600a85611ff69190612e97565b60306120029190612c7a565b60f81b81838151811061203e577f4e487b7100000000000000000000000000000000000000000000000000000000600052603260045260246000fd5b60200101907effffffffffffffffffffffffffffffffffffffffffffffffffffffffffffff1916908160001a905350600a8561207a9190612cd0565b9450611fd2565b8093505050505b919050565b600080823b905060008111915050919050565b60006120b36120ae84612bcd565b612ba8565b9050828152602081018484840111156120cb57600080fd5b6120d6848285612da9565b509392505050565b6000813590506120ed816134b4565b92915050565b600081359050612102816134cb565b92915050565b600081359050612117816134e2565b92915050565b60008151905061212c816134e2565b92915050565b600082601f83011261214357600080fd5b81356121538482602086016120a0565b91505092915050565b60008135905061216b816134f9565b92915050565b60006020828403121561218357600080fd5b6000612191848285016120de565b91505092915050565b600080604083850312156121ad57600080fd5b60006121bb858286016120de565b92505060206121cc858286016120de565b9150509250929050565b6000806000606084860312156121eb57600080fd5b60006121f9868287016120de565b935050602061220a868287016120de565b925050604061221b8682870161215c565b9150509250925092565b6000806000806080858703121561223b57600080fd5b6000612249878288016120de565b945050602061225a878288016120de565b935050604061226b8782880161215c565b925050606085013567ffffffffffffffff81111561228857600080fd5b61229487828801612132565b91505092959194509250565b600080604083850312156122b357600080fd5b60006122c1858286016120de565b92505060206122d2858286016120f3565b9150509250929050565b600080604083850312156122ef57600080fd5b60006122fd858286016120de565b925050602061230e8582860161215c565b9150509250929050565b60006020828403121561232a57600080fd5b600061233884828501612108565b91505092915050565b60006020828403121561235357600080fd5b60006123618482850161211d565b91505092915050565b60006020828403121561237c57600080fd5b600061238a8482850161215c565b91505092915050565b600080604083850312156123a657600080fd5b60006123b48582860161215c565b92505060206123c58582860161215c565b9150509250929050565b60006123db83836127bd565b60a08301905092915050565b6123f081612d35565b82525050565b6123ff81612d35565b82525050565b600061241082612c0e565b61241a8185612c3c565b935061242583612bfe565b8060005b8381101561245657815161243d88826123cf565b975061244883612c2f565b925050600181019050612429565b5085935050505092915050565b61246c81612d47565b82525050565b61247b81612d47565b82525050565b600061248c82612c19565b6124968185612c4d565b93506124a6818560208601612db8565b6124af81612f84565b840191505092915050565b60006124c582612c24565b6124cf8185612c5e565b93506124df818560208601612db8565b6124e881612f84565b840191505092915050565b60006124fe82612c24565b6125088185612c6f565b9350612518818560208601612db8565b80840191505092915050565b6000612531603283612c5e565b915061253c82612f95565b604082019050919050565b6000612554602483612c5e565b915061255f82612fe4565b604082019050919050565b6000612577601983612c5e565b915061258282613033565b602082019050919050565b600061259a602c83612c5e565b91506125a58261305c565b604082019050919050565b60006125bd603883612c5e565b91506125c8826130ab565b604082019050919050565b60006125e0602a83612c5e565b91506125eb826130fa565b604082019050919050565b6000612603602983612c5e565b915061260e82613149565b604082019050919050565b6000612626603183612c5e565b915061263182613198565b604082019050919050565b6000612649602c83612c5e565b9150612654826131e7565b604082019050919050565b600061266c601f83612c5e565b915061267782613236565b602082019050919050565b600061268f602983612c5e565b915061269a8261325f565b604082019050919050565b60006126b2602f83612c5e565b91506126bd826132ae565b604082019050919050565b60006126d5602183612c5e565b91506126e0826132fd565b604082019050919050565b60006126f8602183612c5e565b91506127038261334c565b604082019050919050565b600061271b602d83612c5e565b91506127268261339b565b604082019050919050565b600061273e603183612c5e565b9150612749826133ea565b604082019050919050565b6000612761601f83612c5e565b915061276c82613439565b602082019050919050565b6000612784601883612c5e565b915061278f82613462565b602082019050919050565b60006127a7601f83612c5e565b91506127b28261348b565b602082019050919050565b60a0820160008201516127d36000850182612825565b5060208201516127e660208501826123e7565b5060408201516127f96040850182612825565b50606082015161280c6060850182612463565b50608082015161281f6080850182612825565b50505050565b61282e81612d9f565b82525050565b61283d81612d9f565b82525050565b600061284f82856124f3565b915061285b82846124f3565b91508190509392505050565b600060208201905061287c60008301846123f6565b92915050565b600060808201905061289760008301876123f6565b6128a460208301866123f6565b6128b16040830185612834565b81810360608301526128c38184612481565b905095945050505050565b600060208201905081810360008301526128e88184612405565b905092915050565b60006020820190506129056000830184612472565b92915050565b6000602082019050818103600083015261292581846124ba565b905092915050565b6000602082019050818103600083015261294681612524565b9050919050565b6000602082019050818103600083015261296681612547565b9050919050565b600060208201905081810360008301526129868161256a565b9050919050565b600060208201905081810360008301526129a68161258d565b9050919050565b600060208201905081810360008301526129c6816125b0565b9050919050565b600060208201905081810360008301526129e6816125d3565b9050919050565b60006020820190508181036000830152612a06816125f6565b9050919050565b60006020820190508181036000830152612a2681612619565b9050919050565b60006020820190508181036000830152612a468161263c565b9050919050565b60006020820190508181036000830152612a668161265f565b9050919050565b60006020820190508181036000830152612a8681612682565b9050919050565b60006020820190508181036000830152612aa6816126a5565b9050919050565b60006020820190508181036000830152612ac6816126c8565b9050919050565b60006020820190508181036000830152612ae6816126eb565b9050919050565b60006020820190508181036000830152612b068161270e565b9050919050565b60006020820190508181036000830152612b2681612731565b9050919050565b60006020820190508181036000830152612b4681612754565b9050919050565b60006020820190508181036000830152612b6681612777565b9050919050565b60006020820190508181036000830152612b868161279a565b9050919050565b6000602082019050612ba26000830184612834565b92915050565b6000612bb2612bc3565b9050612bbe8282612e1d565b919050565b6000604051905090565b600067ffffffffffffffff821115612be857612be7612f55565b5b612bf182612f84565b9050602081019050919050565b6000819050602082019050919050565b600081519050919050565b600081519050919050565b600081519050919050565b6000602082019050919050565b600082825260208201905092915050565b600082825260208201905092915050565b600082825260208201905092915050565b600081905092915050565b6000612c8582612d9f565b9150612c9083612d9f565b9250827fffffffffffffffffffffffffffffffffffffffffffffffffffffffffffffffff03821115612cc557612cc4612ec8565b5b828201905092915050565b6000612cdb82612d9f565b9150612ce683612d9f565b925082612cf657612cf5612ef7565b5b828204905092915050565b6000612d0c82612d9f565b9150612d1783612d9f565b925082821015612d2a57612d29612ec8565b5b828203905092915050565b6000612d4082612d7f565b9050919050565b60008115159050919050565b60007fffffffff0000000000000000000000000000000000000000000000000000000082169050919050565b600073ffffffffffffffffffffffffffffffffffffffff82169050919050565b6000819050919050565b82818337600083830152505050565b60005b83811015612dd6578082015181840152602081019050612dbb565b83811115612de5576000848401525b50505050565b60006002820490506001821680612e0357607f821691505b60208210811415612e1757612e16612f26565b5b50919050565b612e2682612f84565b810181811067ffffffffffffffff82111715612e4557612e44612f55565b5b80604052505050565b6000612e5982612d9f565b91507fffffffffffffffffffffffffffffffffffffffffffffffffffffffffffffffff821415612e8c57612e8b612ec8565b5b600182019050919050565b6000612ea282612d9f565b9150612ead83612d9f565b925082612ebd57612ebc612ef7565b5b828206905092915050565b7f4e487b7100000000000000000000000000000000000000000000000000000000600052601160045260246000fd5b7f4e487b7100000000000000000000000000000000000000000000000000000000600052601260045260246000fd5b7f4e487b7100000000000000000000000000000000000000000000000000000000600052602260045260246000fd5b7f4e487b7100000000000000000000000000000000000000000000000000000000600052604160045260246000fd5b6000601f19601f8301169050919050565b7f4552433732313a207472616e7366657220746f206e6f6e20455243373231526560008201527f63656976657220696d706c656d656e7465720000000000000000000000000000602082015250565b7f4552433732313a207472616e7366657220746f20746865207a65726f2061646460008201527f7265737300000000000000000000000000000000000000000000000000000000602082015250565b7f4552433732313a20617070726f766520746f2063616c6c657200000000000000600082015250565b7f4552433732313a206f70657261746f7220717565727920666f72206e6f6e657860008201527f697374656e7420746f6b656e0000000000000000000000000000000000000000602082015250565b7f4552433732313a20617070726f76652063616c6c6572206973206e6f74206f7760008201527f6e6572206e6f7220617070726f76656420666f7220616c6c0000000000000000602082015250565b7f4552433732313a2062616c616e636520717565727920666f7220746865207a6560008201527f726f206164647265737300000000000000000000000000000000000000000000602082015250565b7f4552433732313a206f776e657220717565727920666f72206e6f6e657869737460008201527f656e7420746f6b656e0000000000000000000000000000000000000000000000602082015250565b7f45524337323155524953746f726167653a2055524920717565727920666f722060008201527f6e6f6e6578697374656e7420746f6b656e000000000000000000000000000000602082015250565b7f4552433732313a20617070726f76656420717565727920666f72206e6f6e657860008201527f697374656e7420746f6b656e0000000000000000000000000000000000000000602082015250565b7f706c656173652070726f766964652074686520707269636520616d6f756e7400600082015250565b7f4552433732313a207472616e73666572206f6620746f6b656e2074686174206960008201527f73206e6f74206f776e0000000000000000000000000000000000000000000000602082015250565b7f4552433732314d657461646174613a2055524920717565727920666f72206e6f60008201527f6e6578697374656e7420746f6b656e0000000000000000000000000000000000602082015250565b7f4552433732313a20617070726f76616c20746f2063757272656e74206f776e6560008201527f7200000000000000000000000000000000000000000000000000000000000000602082015250565b7f506c656173652070726f7669646520746865206c697374696e6720616d6f756e60008201527f7400000000000000000000000000000000000000000000000000000000000000602082015250565b7f4e6f20617373657420686173206265656e2075706c6f6164656420746f20746860008201527f65206d61726b6574706c61636500000000000000000000000000000000000000602082015250565b7f4552433732313a207472616e736665722063616c6c6572206973206e6f74206f60008201527f776e6572206e6f7220617070726f766564000000000000000000000000000000602082015250565b7f506c656173652070726f76696465207468652073616c657320616d6f756e7400600082015250565b7f596f7520646f6e2774206861766520616e792061737365740000000000000000600082015250565b7f5265656e7472616e637947756172643a207265656e7472616e742063616c6c00600082015250565b6134bd81612d35565b81146134c857600080fd5b50565b6134d481612d47565b81146134df57600080fd5b50565b6134eb81612d53565b81146134f657600080fd5b50565b61350281612d9f565b811461350d57600080fd5b5056fea26469706673582212201095169b631b8f0c3ea31c5af7d19325b895a4161b0af6498afe202d20e9ad6c64736f6c63430008040033",
  "linkReferences": {},
  "deployedLinkReferences": {}
}