{
  "_format": "hh-sol-artifact-1",
  "contractName": "NFTMarket",
  "sourceName": "contracts/NftMarket.sol",
  "abi": [
    {
      "inputs": [],
      "stateMutability": "nonpayable",
      "type": "constructor"
    },
    {
      "inputs": [
        {
          "internalType": "string",
          "name": "msg",
          "type": "string"
        }
      ],
      "name": "NoAssetFound",
      "type": "error"
    },
    {
      "anonymous": false,
      "inputs": [
        {
          "indexed": true,
          "internalType": "address",
          "name": "owner",
          "type": "address"
        },
        {
          "indexed": true,
          "internalType": "address",
          "name": "approved",
          "type": "address"
        },
        {
          "indexed": true,
          "internalType": "uint256",
          "name": "tokenId",
          "type": "uint256"
        }
      ],
      "name": "Approval",
      "type": "event"
    },
    {
      "anonymous": false,
      "inputs": [
        {
          "indexed": true,
          "internalType": "address",
          "name": "owner",
          "type": "address"
        },
        {
          "indexed": true,
          "internalType": "address",
          "name": "operator",
          "type": "address"
        },
        {
          "indexed": false,
          "internalType": "bool",
          "name": "approved",
          "type": "bool"
        }
      ],
      "name": "ApprovalForAll",
      "type": "event"
    },
    {
      "anonymous": false,
      "inputs": [
        {
          "indexed": true,
          "internalType": "address",
          "name": "from",
          "type": "address"
        },
        {
          "indexed": true,
          "internalType": "address",
          "name": "to",
          "type": "address"
        },
        {
          "indexed": true,
          "internalType": "uint256",
          "name": "tokenId",
          "type": "uint256"
        }
      ],
      "name": "Transfer",
      "type": "event"
    },
    {
      "inputs": [
        {
          "internalType": "address",
          "name": "to",
          "type": "address"
        },
        {
          "internalType": "uint256",
          "name": "tokenId",
          "type": "uint256"
        }
      ],
      "name": "approve",
      "outputs": [],
      "stateMutability": "nonpayable",
      "type": "function"
    },
    {
      "inputs": [
        {
          "internalType": "address",
          "name": "owner",
          "type": "address"
        }
      ],
      "name": "balanceOf",
      "outputs": [
        {
          "internalType": "uint256",
          "name": "",
          "type": "uint256"
        }
      ],
      "stateMutability": "view",
      "type": "function"
    },
    {
      "inputs": [
        {
          "internalType": "uint256",
          "name": "index",
          "type": "uint256"
        }
      ],
      "name": "buyNftAsset",
      "outputs": [],
      "stateMutability": "payable",
      "type": "function"
    },
    {
      "inputs": [
        {
          "internalType": "uint256",
          "name": "tokenId",
          "type": "uint256"
        }
      ],
      "name": "getApproved",
      "outputs": [
        {
          "internalType": "address",
          "name": "",
          "type": "address"
        }
      ],
      "stateMutability": "view",
      "type": "function"
    },
    {
      "inputs": [
        {
          "internalType": "address",
          "name": "owner",
          "type": "address"
        },
        {
          "internalType": "address",
          "name": "operator",
          "type": "address"
        }
      ],
      "name": "isApprovedForAll",
      "outputs": [
        {
          "internalType": "bool",
          "name": "",
          "type": "bool"
        }
      ],
      "stateMutability": "view",
      "type": "function"
    },
    {
      "inputs": [],
      "name": "listAllNft",
      "outputs": [
        {
          "components": [
            {
              "internalType": "uint256",
              "name": "index",
              "type": "uint256"
            },
            {
              "internalType": "address",
              "name": "nftAddress",
              "type": "address"
            },
            {
              "internalType": "address",
              "name": "owner",
              "type": "address"
            },
            {
              "internalType": "uint256",
              "name": "_tokenId",
              "type": "uint256"
            },
            {
              "internalType": "bool",
              "name": "sold",
              "type": "bool"
            },
            {
              "internalType": "uint256",
              "name": "price",
              "type": "uint256"
            }
          ],
          "internalType": "struct NFTMarket.NftItem[]",
          "name": "",
          "type": "tuple[]"
        }
      ],
      "stateMutability": "nonpayable",
      "type": "function"
    },
    {
      "inputs": [],
      "name": "listMyAssets",
      "outputs": [
        {
          "components": [
            {
              "internalType": "uint256",
              "name": "index",
              "type": "uint256"
            },
            {
              "internalType": "address",
              "name": "nftAddress",
              "type": "address"
            },
            {
              "internalType": "address",
              "name": "owner",
              "type": "address"
            },
            {
              "internalType": "uint256",
              "name": "_tokenId",
              "type": "uint256"
            },
            {
              "internalType": "bool",
              "name": "sold",
              "type": "bool"
            },
            {
              "internalType": "uint256",
              "name": "price",
              "type": "uint256"
            }
          ],
          "internalType": "struct NFTMarket.NftItem[]",
          "name": "",
          "type": "tuple[]"
        }
      ],
      "stateMutability": "nonpayable",
      "type": "function"
    },
    {
      "inputs": [],
      "name": "name",
      "outputs": [
        {
          "internalType": "string",
          "name": "",
          "type": "string"
        }
      ],
      "stateMutability": "view",
      "type": "function"
    },
    {
      "inputs": [
        {
          "internalType": "uint256",
          "name": "tokenId",
          "type": "uint256"
        }
      ],
      "name": "ownerOf",
      "outputs": [
        {
          "internalType": "address",
          "name": "",
          "type": "address"
        }
      ],
      "stateMutability": "view",
      "type": "function"
    },
    {
      "inputs": [
        {
          "internalType": "address",
          "name": "from",
          "type": "address"
        },
        {
          "internalType": "address",
          "name": "to",
          "type": "address"
        },
        {
          "internalType": "uint256",
          "name": "tokenId",
          "type": "uint256"
        }
      ],
      "name": "safeTransferFrom",
      "outputs": [],
      "stateMutability": "nonpayable",
      "type": "function"
    },
    {
      "inputs": [
        {
          "internalType": "address",
          "name": "from",
          "type": "address"
        },
        {
          "internalType": "address",
          "name": "to",
          "type": "address"
        },
        {
          "internalType": "uint256",
          "name": "tokenId",
          "type": "uint256"
        },
        {
          "internalType": "bytes",
          "name": "_data",
          "type": "bytes"
        }
      ],
      "name": "safeTransferFrom",
      "outputs": [],
      "stateMutability": "nonpayable",
      "type": "function"
    },
    {
      "inputs": [
        {
          "internalType": "address",
          "name": "nftAddress",
          "type": "address"
        },
        {
          "internalType": "uint256",
          "name": "_tokenId",
          "type": "uint256"
        },
        {
          "internalType": "uint256",
          "name": "price",
          "type": "uint256"
        }
      ],
      "name": "sellNftAsset",
      "outputs": [
        {
          "internalType": "uint256",
          "name": "",
          "type": "uint256"
        }
      ],
      "stateMutability": "payable",
      "type": "function"
    },
    {
      "inputs": [
        {
          "internalType": "address",
          "name": "operator",
          "type": "address"
        },
        {
          "internalType": "bool",
          "name": "approved",
          "type": "bool"
        }
      ],
      "name": "setApprovalForAll",
      "outputs": [],
      "stateMutability": "nonpayable",
      "type": "function"
    },
    {
      "inputs": [
        {
          "internalType": "bytes4",
          "name": "interfaceId",
          "type": "bytes4"
        }
      ],
      "name": "supportsInterface",
      "outputs": [
        {
          "internalType": "bool",
          "name": "",
          "type": "bool"
        }
      ],
      "stateMutability": "view",
      "type": "function"
    },
    {
      "inputs": [],
      "name": "symbol",
      "outputs": [
        {
          "internalType": "string",
          "name": "",
          "type": "string"
        }
      ],
      "stateMutability": "view",
      "type": "function"
    },
    {
      "inputs": [
        {
          "internalType": "uint256",
          "name": "tokenId",
          "type": "uint256"
        }
      ],
      "name": "tokenURI",
      "outputs": [
        {
          "internalType": "string",
          "name": "",
          "type": "string"
        }
      ],
      "stateMutability": "view",
      "type": "function"
    },
    {
      "inputs": [
        {
          "internalType": "address",
          "name": "from",
          "type": "address"
        },
        {
          "internalType": "address",
          "name": "to",
          "type": "address"
        },
        {
          "internalType": "uint256",
          "name": "tokenId",
          "type": "uint256"
        }
      ],
      "name": "transferFrom",
      "outputs": [],
      "stateMutability": "nonpayable",
      "type": "function"
    }
  ],
  "bytecode": "0x6080604052670de0b6b3a7640000600a553480156200001d57600080fd5b506040518060400160405280600c81526020017f4d794e46542d546f6b656e7300000000000000000000000000000000000000008152506040518060400160405280600381526020017f554d5400000000000000000000000000000000000000000000000000000000008152508160009080519060200190620000a29291906200010d565b508060019080519060200190620000bb9291906200010d565b505050600160078190555033600960006101000a81548173ffffffffffffffffffffffffffffffffffffffff021916908373ffffffffffffffffffffffffffffffffffffffff16021790555062000222565b8280546200011b90620001bd565b90600052602060002090601f0160209004810192826200013f57600085556200018b565b82601f106200015a57805160ff19168380011785556200018b565b828001600101855582156200018b579182015b828111156200018a5782518255916020019190600101906200016d565b5b5090506200019a91906200019e565b5090565b5b80821115620001b95760008160009055506001016200019f565b5090565b60006002820490506001821680620001d657607f821691505b60208210811415620001ed57620001ec620001f3565b5b50919050565b7f4e487b7100000000000000000000000000000000000000000000000000000000600052602260045260246000fd5b61373d80620002326000396000f3fe6080604052600436106100fe5760003560e01c80636352211e11610095578063a22cb46511610064578063a22cb4651461033a578063b88d4fde14610363578063c87b56dd1461038c578063d4dbef24146103c9578063e985e9c5146103f9576100fe565b80636352211e1461026a57806370a08231146102a7578063885b6c7d146102e457806395d89b411461030f576100fe565b80631a3ee588116100d15780631a3ee588146101d157806323b872dd146101ed57806337aa72c81461021657806342842e0e14610241576100fe565b806301ffc9a71461010357806306fdde0314610140578063081812fc1461016b578063095ea7b3146101a8575b600080fd5b34801561010f57600080fd5b5061012a60048036038101906101259190612538565b610436565b6040516101379190612ae7565b60405180910390f35b34801561014c57600080fd5b50610155610518565b6040516101629190612b02565b60405180910390f35b34801561017757600080fd5b50610192600480360381019061018d919061258a565b6105aa565b60405161019f9190612a5e565b60405180910390f35b3480156101b457600080fd5b506101cf60048036038101906101ca91906124ad565b61062f565b005b6101eb60048036038101906101e6919061258a565b610747565b005b3480156101f957600080fd5b50610214600480360381019061020f91906123a7565b610981565b005b34801561022257600080fd5b5061022b6109e1565b6040516102389190612ac5565b60405180910390f35b34801561024d57600080fd5b50610268600480360381019061026391906123a7565b610cea565b005b34801561027657600080fd5b50610291600480360381019061028c919061258a565b610d0a565b60405161029e9190612a5e565b60405180910390f35b3480156102b357600080fd5b506102ce60048036038101906102c99190612342565b610dbc565b6040516102db9190612d84565b60405180910390f35b3480156102f057600080fd5b506102f9610e74565b6040516103069190612ac5565b60405180910390f35b34801561031b57600080fd5b506103246111dc565b6040516103319190612b02565b60405180910390f35b34801561034657600080fd5b50610361600480360381019061035c9190612471565b61126e565b005b34801561036f57600080fd5b5061038a600480360381019061038591906123f6565b611284565b005b34801561039857600080fd5b506103b360048036038101906103ae919061258a565b6112e6565b6040516103c09190612b02565b60405180910390f35b6103e360048036038101906103de91906124e9565b611438565b6040516103f09190612d84565b60405180910390f35b34801561040557600080fd5b50610420600480360381019061041b919061236b565b611705565b60405161042d9190612ae7565b60405180910390f35b60007f80ac58cd000000000000000000000000000000000000000000000000000000007bffffffffffffffffffffffffffffffffffffffffffffffffffffffff1916827bffffffffffffffffffffffffffffffffffffffffffffffffffffffff1916148061050157507f5b5e139f000000000000000000000000000000000000000000000000000000007bffffffffffffffffffffffffffffffffffffffffffffffffffffffff1916827bffffffffffffffffffffffffffffffffffffffffffffffffffffffff1916145b80610511575061051082611799565b5b9050919050565b60606000805461052790612fe2565b80601f016020809104026020016040519081016040528092919081815260200182805461055390612fe2565b80156105a05780601f10610575576101008083540402835291602001916105a0565b820191906000526020600020905b81548152906001019060200180831161058357829003601f168201915b5050505050905090565b60006105b582611803565b6105f4576040517f08c379a00000000000000000000000000000000000000000000000000000000081526004016105eb90612c24565b60405180910390fd5b6004600083815260200190815260200160002060009054906101000a900473ffffffffffffffffffffffffffffffffffffffff169050919050565b600061063a82610d0a565b90508073ffffffffffffffffffffffffffffffffffffffff168373ffffffffffffffffffffffffffffffffffffffff1614156106ab576040517f08c379a00000000000000000000000000000000000000000000000000000000081526004016106a290612ca4565b60405180910390fd5b8073ffffffffffffffffffffffffffffffffffffffff166106ca61186f565b73ffffffffffffffffffffffffffffffffffffffff1614806106f957506106f8816106f361186f565b611705565b5b610738576040517f08c379a000000000000000000000000000000000000000000000000000000000815260040161072f90612ba4565b60405180910390fd5b6107428383611877565b505050565b6002600754141561078d576040517f08c379a000000000000000000000000000000000000000000000000000000000815260040161078490612d64565b60405180910390fd5b60026007819055506000600e60008381526020019081526020016000206005015490506000600e600084815260200190815260200160002060030154905081341461080d576040517f08c379a000000000000000000000000000000000000000000000000000000000815260040161080490612c44565b60405180910390fd5b600e600084815260200190815260200160002060020160009054906101000a900473ffffffffffffffffffffffffffffffffffffffff1673ffffffffffffffffffffffffffffffffffffffff166108fc349081150290604051600060405180830381858888f19350505050158015610889573d6000803e3d6000fd5b50610895303383610cea565b33600e600085815260200190815260200160002060020160006101000a81548173ffffffffffffffffffffffffffffffffffffffff021916908373ffffffffffffffffffffffffffffffffffffffff1602179055506001600e600085815260200190815260200160002060040160006101000a81548160ff021916908315150217905550803373ffffffffffffffffffffffffffffffffffffffff163073ffffffffffffffffffffffffffffffffffffffff167fddf252ad1be2c89b69c2b068fc378daa952ba7f163c4a11628f55a4df523b3ef60405160405180910390a45050600160078190555050565b61099261098c61186f565b82611930565b6109d1576040517f08c379a00000000000000000000000000000000000000000000000000000000081526004016109c890612d04565b60405180910390fd5b6109dc838383611a0e565b505050565b60606000600b541115610b6d5760005b600b54811015610b6757600c600e60008381526020019081526020016000209080600181540180825580915050600190039060005260206000209060060201600090919091909150600082015481600001556001820160009054906101000a900473ffffffffffffffffffffffffffffffffffffffff168160010160006101000a81548173ffffffffffffffffffffffffffffffffffffffff021916908373ffffffffffffffffffffffffffffffffffffffff1602179055506002820160009054906101000a900473ffffffffffffffffffffffffffffffffffffffff168160020160006101000a81548173ffffffffffffffffffffffffffffffffffffffff021916908373ffffffffffffffffffffffffffffffffffffffff160217905550600382015481600301556004820160009054906101000a900460ff168160040160006101000a81548160ff0219169083151502179055506005820154816005015550508080610b5f90613045565b9150506109f1565b50610ba8565b6040517f7e47d87c000000000000000000000000000000000000000000000000000000008152600401610b9f90612ce4565b60405180910390fd5b600c805480602002602001604051908101604052809291908181526020016000905b82821015610ce157838290600052602060002090600602016040518060c0016040529081600082015481526020016001820160009054906101000a900473ffffffffffffffffffffffffffffffffffffffff1673ffffffffffffffffffffffffffffffffffffffff1673ffffffffffffffffffffffffffffffffffffffff1681526020016002820160009054906101000a900473ffffffffffffffffffffffffffffffffffffffff1673ffffffffffffffffffffffffffffffffffffffff1673ffffffffffffffffffffffffffffffffffffffff168152602001600382015481526020016004820160009054906101000a900460ff1615151515815260200160058201548152505081526020019060010190610bca565b50505050905090565b610d0583838360405180602001604052806000815250611284565b505050565b6000806002600084815260200190815260200160002060009054906101000a900473ffffffffffffffffffffffffffffffffffffffff169050600073ffffffffffffffffffffffffffffffffffffffff168173ffffffffffffffffffffffffffffffffffffffff161415610db3576040517f08c379a0000000000000000000000000000000000000000000000000000000008152600401610daa90612be4565b60405180910390fd5b80915050919050565b60008073ffffffffffffffffffffffffffffffffffffffff168273ffffffffffffffffffffffffffffffffffffffff161415610e2d576040517f08c379a0000000000000000000000000000000000000000000000000000000008152600401610e2490612bc4565b60405180910390fd5b600360008373ffffffffffffffffffffffffffffffffffffffff1673ffffffffffffffffffffffffffffffffffffffff168152602001908152602001600020549050919050565b606060005b600b54811015611099573373ffffffffffffffffffffffffffffffffffffffff16600e600083815260200190815260200160002060020160009054906101000a900473ffffffffffffffffffffffffffffffffffffffff1673ffffffffffffffffffffffffffffffffffffffff16141561104b57600d600e60008381526020019081526020016000209080600181540180825580915050600190039060005260206000209060060201600090919091909150600082015481600001556001820160009054906101000a900473ffffffffffffffffffffffffffffffffffffffff168160010160006101000a81548173ffffffffffffffffffffffffffffffffffffffff021916908373ffffffffffffffffffffffffffffffffffffffff1602179055506002820160009054906101000a900473ffffffffffffffffffffffffffffffffffffffff168160020160006101000a81548173ffffffffffffffffffffffffffffffffffffffff021916908373ffffffffffffffffffffffffffffffffffffffff160217905550600382015481600301556004820160009054906101000a900460ff168160040160006101000a81548160ff021916908315150217905550600582015481600501555050611086565b6040517f7e47d87c00000000000000000000000000000000000000000000000000000000815260040161107d90612d44565b60405180910390fd5b808061109190613045565b915050610e79565b50600d805480602002602001604051908101604052809291908181526020016000905b828210156111d357838290600052602060002090600602016040518060c0016040529081600082015481526020016001820160009054906101000a900473ffffffffffffffffffffffffffffffffffffffff1673ffffffffffffffffffffffffffffffffffffffff1673ffffffffffffffffffffffffffffffffffffffff1681526020016002820160009054906101000a900473ffffffffffffffffffffffffffffffffffffffff1673ffffffffffffffffffffffffffffffffffffffff1673ffffffffffffffffffffffffffffffffffffffff168152602001600382015481526020016004820160009054906101000a900460ff16151515158152602001600582015481525050815260200190600101906110bc565b50505050905090565b6060600180546111eb90612fe2565b80601f016020809104026020016040519081016040528092919081815260200182805461121790612fe2565b80156112645780601f1061123957610100808354040283529160200191611264565b820191906000526020600020905b81548152906001019060200180831161124757829003601f168201915b5050505050905090565b61128061127961186f565b8383611c6a565b5050565b61129561128f61186f565b83611930565b6112d4576040517f08c379a00000000000000000000000000000000000000000000000000000000081526004016112cb90612d04565b60405180910390fd5b6112e084848484611dd7565b50505050565b60606112f182611803565b611330576040517f08c379a000000000000000000000000000000000000000000000000000000000815260040161132790612c04565b60405180910390fd5b600060066000848152602001908152602001600020805461135090612fe2565b80601f016020809104026020016040519081016040528092919081815260200182805461137c90612fe2565b80156113c95780601f1061139e576101008083540402835291602001916113c9565b820191906000526020600020905b8154815290600101906020018083116113ac57829003601f168201915b5050505050905060006113da611e33565b90506000815114156113f0578192505050611433565b60008251111561142557808260405160200161140d929190612a3a565b60405160208183030381529060405292505050611433565b61142e84611e4a565b925050505b919050565b600060026007541415611480576040517f08c379a000000000000000000000000000000000000000000000000000000000815260040161147790612d64565b60405180910390fd5b6002600781905550600a5434146114cc576040517f08c379a00000000000000000000000000000000000000000000000000000000081526004016114c390612cc4565b60405180910390fd5b6001821161150f576040517f08c379a000000000000000000000000000000000000000000000000000000000815260040161150690612d24565b60405180910390fd5b6115196008611ef1565b6115236008611f07565b600b819055506040518060c00160405280600b5481526020018573ffffffffffffffffffffffffffffffffffffffff1681526020013373ffffffffffffffffffffffffffffffffffffffff16815260200184815260200160001515815260200183815250600e60008581526020019081526020016000206000820151816000015560208201518160010160006101000a81548173ffffffffffffffffffffffffffffffffffffffff021916908373ffffffffffffffffffffffffffffffffffffffff16021790555060408201518160020160006101000a81548173ffffffffffffffffffffffffffffffffffffffff021916908373ffffffffffffffffffffffffffffffffffffffff1602179055506060820151816003015560808201518160040160006101000a81548160ff02191690831515021790555060a08201518160050155905050600960009054906101000a900473ffffffffffffffffffffffffffffffffffffffff1673ffffffffffffffffffffffffffffffffffffffff166108fc349081150290604051600060405180830381858888f193505050501580156116d1573d6000803e3d6000fd5b506116dd333085610cea565b600e600084815260200190815260200160002060050154905060016007819055509392505050565b6000600560008473ffffffffffffffffffffffffffffffffffffffff1673ffffffffffffffffffffffffffffffffffffffff16815260200190815260200160002060008373ffffffffffffffffffffffffffffffffffffffff1673ffffffffffffffffffffffffffffffffffffffff16815260200190815260200160002060009054906101000a900460ff16905092915050565b60007f01ffc9a7000000000000000000000000000000000000000000000000000000007bffffffffffffffffffffffffffffffffffffffffffffffffffffffff1916827bffffffffffffffffffffffffffffffffffffffffffffffffffffffff1916149050919050565b60008073ffffffffffffffffffffffffffffffffffffffff166002600084815260200190815260200160002060009054906101000a900473ffffffffffffffffffffffffffffffffffffffff1673ffffffffffffffffffffffffffffffffffffffff1614159050919050565b600033905090565b816004600083815260200190815260200160002060006101000a81548173ffffffffffffffffffffffffffffffffffffffff021916908373ffffffffffffffffffffffffffffffffffffffff160217905550808273ffffffffffffffffffffffffffffffffffffffff166118ea83610d0a565b73ffffffffffffffffffffffffffffffffffffffff167f8c5be1e5ebec7d5bd14f71427d1e84f3dd0314c0f7b2291e5b200ac8c7c3b92560405160405180910390a45050565b600061193b82611803565b61197a576040517f08c379a000000000000000000000000000000000000000000000000000000000815260040161197190612b84565b60405180910390fd5b600061198583610d0a565b90508073ffffffffffffffffffffffffffffffffffffffff168473ffffffffffffffffffffffffffffffffffffffff1614806119f457508373ffffffffffffffffffffffffffffffffffffffff166119dc846105aa565b73ffffffffffffffffffffffffffffffffffffffff16145b80611a055750611a048185611705565b5b91505092915050565b8273ffffffffffffffffffffffffffffffffffffffff16611a2e82610d0a565b73ffffffffffffffffffffffffffffffffffffffff1614611a84576040517f08c379a0000000000000000000000000000000000000000000000000000000008152600401611a7b90612c64565b60405180910390fd5b600073ffffffffffffffffffffffffffffffffffffffff168273ffffffffffffffffffffffffffffffffffffffff161415611af4576040517f08c379a0000000000000000000000000000000000000000000000000000000008152600401611aeb90612b44565b60405180910390fd5b611aff838383611f15565b611b0a600082611877565b6001600360008573ffffffffffffffffffffffffffffffffffffffff1673ffffffffffffffffffffffffffffffffffffffff1681526020019081526020016000206000828254611b5a9190612ef8565b925050819055506001600360008473ffffffffffffffffffffffffffffffffffffffff1673ffffffffffffffffffffffffffffffffffffffff1681526020019081526020016000206000828254611bb19190612e71565b92505081905550816002600083815260200190815260200160002060006101000a81548173ffffffffffffffffffffffffffffffffffffffff021916908373ffffffffffffffffffffffffffffffffffffffff160217905550808273ffffffffffffffffffffffffffffffffffffffff168473ffffffffffffffffffffffffffffffffffffffff167fddf252ad1be2c89b69c2b068fc378daa952ba7f163c4a11628f55a4df523b3ef60405160405180910390a4505050565b8173ffffffffffffffffffffffffffffffffffffffff168373ffffffffffffffffffffffffffffffffffffffff161415611cd9576040517f08c379a0000000000000000000000000000000000000000000000000000000008152600401611cd090612b64565b60405180910390fd5b80600560008573ffffffffffffffffffffffffffffffffffffffff1673ffffffffffffffffffffffffffffffffffffffff16815260200190815260200160002060008473ffffffffffffffffffffffffffffffffffffffff1673ffffffffffffffffffffffffffffffffffffffff16815260200190815260200160002060006101000a81548160ff0219169083151502179055508173ffffffffffffffffffffffffffffffffffffffff168373ffffffffffffffffffffffffffffffffffffffff167f17307eab39ab6107e8899845ad3d59bd9653f200f220920489ca2b5937696c3183604051611dca9190612ae7565b60405180910390a3505050565b611de2848484611a0e565b611dee84848484611f1a565b611e2d576040517f08c379a0000000000000000000000000000000000000000000000000000000008152600401611e2490612b24565b60405180910390fd5b50505050565b606060405180602001604052806000815250905090565b6060611e5582611803565b611e94576040517f08c379a0000000000000000000000000000000000000000000000000000000008152600401611e8b90612c84565b60405180910390fd5b6000611e9e611e33565b90506000815111611ebe5760405180602001604052806000815250611ee9565b80611ec8846120b1565b604051602001611ed9929190612a3a565b6040516020818303038152906040525b915050919050565b6001816000016000828254019250508190555050565b600081600001549050919050565b505050565b6000611f3b8473ffffffffffffffffffffffffffffffffffffffff1661225e565b156120a4578373ffffffffffffffffffffffffffffffffffffffff1663150b7a02611f6461186f565b8786866040518563ffffffff1660e01b8152600401611f869493929190612a79565b602060405180830381600087803b158015611fa057600080fd5b505af1925050508015611fd157506040513d601f19601f82011682018060405250810190611fce9190612561565b60015b612054573d8060008114612001576040519150601f19603f3d011682016040523d82523d6000602084013e612006565b606091505b5060008151141561204c576040517f08c379a000000000000000000000000000000000000000000000000000000000815260040161204390612b24565b60405180910390fd5b805181602001fd5b63150b7a0260e01b7bffffffffffffffffffffffffffffffffffffffffffffffffffffffff1916817bffffffffffffffffffffffffffffffffffffffffffffffffffffffff1916149150506120a9565b600190505b949350505050565b606060008214156120f9576040518060400160405280600181526020017f30000000000000000000000000000000000000000000000000000000000000008152509050612259565b600082905060005b6000821461212b57808061211490613045565b915050600a826121249190612ec7565b9150612101565b60008167ffffffffffffffff81111561216d577f4e487b7100000000000000000000000000000000000000000000000000000000600052604160045260246000fd5b6040519080825280601f01601f19166020018201604052801561219f5781602001600182028036833780820191505090505b5090505b60008514612252576001826121b89190612ef8565b9150600a856121c7919061308e565b60306121d39190612e71565b60f81b81838151811061220f577f4e487b7100000000000000000000000000000000000000000000000000000000600052603260045260246000fd5b60200101907effffffffffffffffffffffffffffffffffffffffffffffffffffffffffffff1916908160001a905350600a8561224b9190612ec7565b94506121a3565b8093505050505b919050565b600080823b905060008111915050919050565b600061228461227f84612dc4565b612d9f565b90508281526020810184848401111561229c57600080fd5b6122a7848285612fa0565b509392505050565b6000813590506122be816136ab565b92915050565b6000813590506122d3816136c2565b92915050565b6000813590506122e8816136d9565b92915050565b6000815190506122fd816136d9565b92915050565b600082601f83011261231457600080fd5b8135612324848260208601612271565b91505092915050565b60008135905061233c816136f0565b92915050565b60006020828403121561235457600080fd5b6000612362848285016122af565b91505092915050565b6000806040838503121561237e57600080fd5b600061238c858286016122af565b925050602061239d858286016122af565b9150509250929050565b6000806000606084860312156123bc57600080fd5b60006123ca868287016122af565b93505060206123db868287016122af565b92505060406123ec8682870161232d565b9150509250925092565b6000806000806080858703121561240c57600080fd5b600061241a878288016122af565b945050602061242b878288016122af565b935050604061243c8782880161232d565b925050606085013567ffffffffffffffff81111561245957600080fd5b61246587828801612303565b91505092959194509250565b6000806040838503121561248457600080fd5b6000612492858286016122af565b92505060206124a3858286016122c4565b9150509250929050565b600080604083850312156124c057600080fd5b60006124ce858286016122af565b92505060206124df8582860161232d565b9150509250929050565b6000806000606084860312156124fe57600080fd5b600061250c868287016122af565b935050602061251d8682870161232d565b925050604061252e8682870161232d565b9150509250925092565b60006020828403121561254a57600080fd5b6000612558848285016122d9565b91505092915050565b60006020828403121561257357600080fd5b6000612581848285016122ee565b91505092915050565b60006020828403121561259c57600080fd5b60006125aa8482850161232d565b91505092915050565b60006125bf83836129a1565b60c08301905092915050565b6125d481612f2c565b82525050565b6125e381612f2c565b82525050565b60006125f482612e05565b6125fe8185612e33565b935061260983612df5565b8060005b8381101561263a57815161262188826125b3565b975061262c83612e26565b92505060018101905061260d565b5085935050505092915050565b61265081612f3e565b82525050565b61265f81612f3e565b82525050565b600061267082612e10565b61267a8185612e44565b935061268a818560208601612faf565b6126938161317b565b840191505092915050565b60006126a982612e1b565b6126b38185612e55565b93506126c3818560208601612faf565b6126cc8161317b565b840191505092915050565b60006126e282612e1b565b6126ec8185612e66565b93506126fc818560208601612faf565b80840191505092915050565b6000612715603283612e55565b91506127208261318c565b604082019050919050565b6000612738602483612e55565b9150612743826131db565b604082019050919050565b600061275b601983612e55565b91506127668261322a565b602082019050919050565b600061277e602c83612e55565b915061278982613253565b604082019050919050565b60006127a1603883612e55565b91506127ac826132a2565b604082019050919050565b60006127c4602a83612e55565b91506127cf826132f1565b604082019050919050565b60006127e7602983612e55565b91506127f282613340565b604082019050919050565b600061280a603183612e55565b91506128158261338f565b604082019050919050565b600061282d602c83612e55565b9150612838826133de565b604082019050919050565b6000612850601f83612e55565b915061285b8261342d565b602082019050919050565b6000612873602983612e55565b915061287e82613456565b604082019050919050565b6000612896602f83612e55565b91506128a1826134a5565b604082019050919050565b60006128b9602183612e55565b91506128c4826134f4565b604082019050919050565b60006128dc602183612e55565b91506128e782613543565b604082019050919050565b60006128ff602d83612e55565b915061290a82613592565b604082019050919050565b6000612922603183612e55565b915061292d826135e1565b604082019050919050565b6000612945601f83612e55565b915061295082613630565b602082019050919050565b6000612968601883612e55565b915061297382613659565b602082019050919050565b600061298b601f83612e55565b915061299682613682565b602082019050919050565b60c0820160008201516129b76000850182612a1c565b5060208201516129ca60208501826125cb565b5060408201516129dd60408501826125cb565b5060608201516129f06060850182612a1c565b506080820151612a036080850182612647565b5060a0820151612a1660a0850182612a1c565b50505050565b612a2581612f96565b82525050565b612a3481612f96565b82525050565b6000612a4682856126d7565b9150612a5282846126d7565b91508190509392505050565b6000602082019050612a7360008301846125da565b92915050565b6000608082019050612a8e60008301876125da565b612a9b60208301866125da565b612aa86040830185612a2b565b8181036060830152612aba8184612665565b905095945050505050565b60006020820190508181036000830152612adf81846125e9565b905092915050565b6000602082019050612afc6000830184612656565b92915050565b60006020820190508181036000830152612b1c818461269e565b905092915050565b60006020820190508181036000830152612b3d81612708565b9050919050565b60006020820190508181036000830152612b5d8161272b565b9050919050565b60006020820190508181036000830152612b7d8161274e565b9050919050565b60006020820190508181036000830152612b9d81612771565b9050919050565b60006020820190508181036000830152612bbd81612794565b9050919050565b60006020820190508181036000830152612bdd816127b7565b9050919050565b60006020820190508181036000830152612bfd816127da565b9050919050565b60006020820190508181036000830152612c1d816127fd565b9050919050565b60006020820190508181036000830152612c3d81612820565b9050919050565b60006020820190508181036000830152612c5d81612843565b9050919050565b60006020820190508181036000830152612c7d81612866565b9050919050565b60006020820190508181036000830152612c9d81612889565b9050919050565b60006020820190508181036000830152612cbd816128ac565b9050919050565b60006020820190508181036000830152612cdd816128cf565b9050919050565b60006020820190508181036000830152612cfd816128f2565b9050919050565b60006020820190508181036000830152612d1d81612915565b9050919050565b60006020820190508181036000830152612d3d81612938565b9050919050565b60006020820190508181036000830152612d5d8161295b565b9050919050565b60006020820190508181036000830152612d7d8161297e565b9050919050565b6000602082019050612d996000830184612a2b565b92915050565b6000612da9612dba565b9050612db58282613014565b919050565b6000604051905090565b600067ffffffffffffffff821115612ddf57612dde61314c565b5b612de88261317b565b9050602081019050919050565b6000819050602082019050919050565b600081519050919050565b600081519050919050565b600081519050919050565b6000602082019050919050565b600082825260208201905092915050565b600082825260208201905092915050565b600082825260208201905092915050565b600081905092915050565b6000612e7c82612f96565b9150612e8783612f96565b9250827fffffffffffffffffffffffffffffffffffffffffffffffffffffffffffffffff03821115612ebc57612ebb6130bf565b5b828201905092915050565b6000612ed282612f96565b9150612edd83612f96565b925082612eed57612eec6130ee565b5b828204905092915050565b6000612f0382612f96565b9150612f0e83612f96565b925082821015612f2157612f206130bf565b5b828203905092915050565b6000612f3782612f76565b9050919050565b60008115159050919050565b60007fffffffff0000000000000000000000000000000000000000000000000000000082169050919050565b600073ffffffffffffffffffffffffffffffffffffffff82169050919050565b6000819050919050565b82818337600083830152505050565b60005b83811015612fcd578082015181840152602081019050612fb2565b83811115612fdc576000848401525b50505050565b60006002820490506001821680612ffa57607f821691505b6020821081141561300e5761300d61311d565b5b50919050565b61301d8261317b565b810181811067ffffffffffffffff8211171561303c5761303b61314c565b5b80604052505050565b600061305082612f96565b91507fffffffffffffffffffffffffffffffffffffffffffffffffffffffffffffffff821415613083576130826130bf565b5b600182019050919050565b600061309982612f96565b91506130a483612f96565b9250826130b4576130b36130ee565b5b828206905092915050565b7f4e487b7100000000000000000000000000000000000000000000000000000000600052601160045260246000fd5b7f4e487b7100000000000000000000000000000000000000000000000000000000600052601260045260246000fd5b7f4e487b7100000000000000000000000000000000000000000000000000000000600052602260045260246000fd5b7f4e487b7100000000000000000000000000000000000000000000000000000000600052604160045260246000fd5b6000601f19601f8301169050919050565b7f4552433732313a207472616e7366657220746f206e6f6e20455243373231526560008201527f63656976657220696d706c656d656e7465720000000000000000000000000000602082015250565b7f4552433732313a207472616e7366657220746f20746865207a65726f2061646460008201527f7265737300000000000000000000000000000000000000000000000000000000602082015250565b7f4552433732313a20617070726f766520746f2063616c6c657200000000000000600082015250565b7f4552433732313a206f70657261746f7220717565727920666f72206e6f6e657860008201527f697374656e7420746f6b656e0000000000000000000000000000000000000000602082015250565b7f4552433732313a20617070726f76652063616c6c6572206973206e6f74206f7760008201527f6e6572206e6f7220617070726f76656420666f7220616c6c0000000000000000602082015250565b7f4552433732313a2062616c616e636520717565727920666f7220746865207a6560008201527f726f206164647265737300000000000000000000000000000000000000000000602082015250565b7f4552433732313a206f776e657220717565727920666f72206e6f6e657869737460008201527f656e7420746f6b656e0000000000000000000000000000000000000000000000602082015250565b7f45524337323155524953746f726167653a2055524920717565727920666f722060008201527f6e6f6e6578697374656e7420746f6b656e000000000000000000000000000000602082015250565b7f4552433732313a20617070726f76656420717565727920666f72206e6f6e657860008201527f697374656e7420746f6b656e0000000000000000000000000000000000000000602082015250565b7f706c656173652070726f766964652074686520707269636520616d6f756e7400600082015250565b7f4552433732313a207472616e73666572206f6620746f6b656e2074686174206960008201527f73206e6f74206f776e0000000000000000000000000000000000000000000000602082015250565b7f4552433732314d657461646174613a2055524920717565727920666f72206e6f60008201527f6e6578697374656e7420746f6b656e0000000000000000000000000000000000602082015250565b7f4552433732313a20617070726f76616c20746f2063757272656e74206f776e6560008201527f7200000000000000000000000000000000000000000000000000000000000000602082015250565b7f506c656173652070726f7669646520746865206c697374696e6720616d6f756e60008201527f7400000000000000000000000000000000000000000000000000000000000000602082015250565b7f4e6f20617373657420686173206265656e2075706c6f6164656420746f20746860008201527f65206d61726b6574706c61636500000000000000000000000000000000000000602082015250565b7f4552433732313a207472616e736665722063616c6c6572206973206e6f74206f60008201527f776e6572206e6f7220617070726f766564000000000000000000000000000000602082015250565b7f506c656173652070726f76696465207468652073616c657320616d6f756e7400600082015250565b7f596f7520646f6e2774206861766520616e792061737365740000000000000000600082015250565b7f5265656e7472616e637947756172643a207265656e7472616e742063616c6c00600082015250565b6136b481612f2c565b81146136bf57600080fd5b50565b6136cb81612f3e565b81146136d657600080fd5b50565b6136e281612f4a565b81146136ed57600080fd5b50565b6136f981612f96565b811461370457600080fd5b5056fea2646970667358221220cd3be206b9e4a962dae57076b6121721f524c5514fa061e594fede1e250a0b5164736f6c63430008040033",
  "linkReferences": {},
  "deployedLinkReferences": {}
}